:020000040800F2
:10000000A03D01206102000825440008B93B00081A
:10001000CD4200084D150008637B00080000000079
:10002000000000000000000000000000A101000826
:10003000A731000800000000FD010008114D000874
:100040007F7B00087B0200087B0200087B0200081F
:100050007B0200087B02000859360008F9360008C8
:100060001D3700083B370008593700087B0200089D
:100070007B0200087B0200087B0200087B0200086C
:100080007B0200087B0200087B020008B115000813
:10009000511500087B0200087B0200087937000830
:1000A000D14E0008D54E00087B020008D34E000850
:1000B000014F0008395100087B0200087B0200084C
:1000C0007B0200087B0200087B02000881490008CF
:1000D00083490008D160000869610008D161000807
:1000E000793600087B0200087B020008DD51000819
:1000F000EB510008E95100087B0200087B02000870
:100100007B0200087B020008C951000885490008ED
:1001100019600008616000087B0200087B0200088B
:100120007B0200087B0200087B0200087B020008BB
:100130007B0200087B0200087B020008A520000863
:10014000191600087B0200087B020008AD44000875
:100150007B0200087B0200087B0200087B0200088B
:100160007B0200087B0200087B0200087B0200087B
:100170007B0200087B0200087B0200087B0200086B
:100180007B0200087B020008DFF810D000F088FE38
:1001900000480047998D0008AFF30080A03D012082
:1001A0002C4B19680868B0E8F04F80F30988BFF35A
:1001B0006F8F4FF0000080F311887047000000003F
:1001C00008480068006880F308884FF0000080F35A
:1001D000148862B661B6BFF34F8FBFF36F8F00DF35
:1001E00000BF00BF08ED00E0DFF80C00016841F43B
:1001F00070010160704700BF88ED00E0EFF30980F7
:10020000BFF36F8F134B1A681EF0100F08BF20ED5D
:10021000108A20E9F04F106009B44FF0010080F31C
:100220001188BFF34F8FBFF36F8F09F0E1FE4FF0DE
:10023000000080F3118809BC19680868B0E8F04F25
:100240001EF0100F08BFB0EC108A80F30988BFF3CE
:100250006F8F704708040020EFF30580704700009F
:100260000648804706480047FEE7FEE7FEE7FEE750
:10027000FEE7FEE7FEE7FEE7FEE7FEE73D4D00088E
:100280008901000840EA01039B0703D009E008C97F
:10029000121F08C0042AFAD203E011F8013B00F84B
:1002A000013B521EF9D27047D2B201E000F8012B97
:1002B000491EFBD270470022F6E710B513460A46E6
:1002C00004461946FFF7F0FF204610BD30B505463D
:1002D0000020034600E05B1C934205D2EC5CC85C46
:1002E000201A01D1002CF6D130BD00000FB400B5AA
:1002F0008DB010A909900B9000914FF0FF300A903B
:1003000000200C9005480690054807906A4609A809
:100310000F9900F0DFFC0DB05DF814FBF10C000844
:100320000F0D00082DE9FF5F1D464FF0FF3BD5E99B
:10033000014691465F464FF00008A9697F1C01986D
:100340008847296A824688470028F6D1BAF1FF3FDC
:100350000CD024F4C064002E19DD600614D5BAF167
:100360002B0F09D0BAF12D0F0ED103E0584604B07F
:10037000BDE8F09F44F48064A9697F1C0198884718
:10038000761E8246002E02DDBAF1300F03D0B9F19D
:10039000000F26D032E0A969761E44F400747F1C59
:1003A000019888478246002E05DDBAF1780F06D005
:1003B000BAF1580F03D0B9F1000F10D01EE0B9F117
:1003C000000F02D0B9F1100F18D1A969761E24F4DC
:1003D00000747F1C019888478246102002E00820A4
:1003E00000E00A20814609E008FB0908A969761E99
:1003F00044F400747F1C019888478246002E05DD76
:100400004946504600F052FC0028EDDAE9690198AF
:100410008847A00502D46FF00100A8E7E00725D1C6
:10042000600613D5600502D5C8F1000000E0404623
:1004300029680A1D2A600968220501D5087015E09F
:10044000220701D5088011E008600FE02868011D2F
:1004500029600068210502D580F8008006E02107A8
:1004600002D5A0F8008001E0C0F8008038467EE7A1
:100470002DE9FF4F087883B09946FF2805D0491C25
:100480002D2804D00024002008E000200BE00124E7
:10049000F9E700EB800003EB4000491C0B78FF2BD1
:1004A000F7D104B1404200230293147819461D4647
:1004B0002D2C01D02B2C04D1521C2D2C13D0002418
:1004C0000294AA461478FF2C0FD00A25A3FB0578C6
:1004D00001FB05814FF0000C03FB0C11521CE319CA
:1004E0004AEB0101EEE70124EAE7814453EA010007
:1004F00002D019F5C87F06DA03980021C0E900117F
:1005000007B0BDE8F08F0025AE4E2F46DFF8B88269
:10051000184600F0A1FCCDE90001B9F1000002DAB3
:10052000C9F1000400E004460023A74A1AEB030BBC
:1005300042EB045A12E0E00707D02A463346384619
:10054000414600F0ECF9074688462A4633461046F5
:10055000194600F0E4F905460E466410002CEAD175
:10056000DDE90001B9F1000F5A46534606DA00F002
:1005700048FA3A46434600F044FA05E000F0CFF965
:100580003A46434600F0CBF9029A0AB181F00041A5
:10059000039AC2E90001B3E72DE9FF4F1F468DB072
:1005A000D7E901464FF0FF382E2045464FF00009AD
:1005B0000B90B9696D1C0E988847396A8246884746
:1005C0000028F6D1BAF1FF3F0AD024F4D064002EFF
:1005D00011DDBAF12B0F08D0BAF12D0F0BD102E0CB
:1005E000404611B08DE744F48064B9696D1C0E98E3
:1005F00088478246761E6946600501D52D2000E0B9
:100600002B208DF8000001F1010B0DF1200809E00D
:10061000B9696D1C0E98884782460F9844F400749F
:10062000761E0560002E02DDBAF1300FF0D00B9976
:100630008A453ED144F0800406E00F99681CA9F178
:10064000010944F400740860B9696D1C761E0E98A7
:10065000884782463028F0D02BE00B998A4505D197
:10066000200603D444F08004761E18E0504607F0BC
:1006700037FC08B30DF11301761E44F400748B456A
:1006800008D2AAF130000BF8010B200607D5A9F11A
:10069000010003E0200602D409F101008146A00513
:1006A00002D50F99681C0860B9696D1C0E988847BF
:1006B0008246002ED1DC53E0002E51DDBAF1650FE9
:1006C00002D0BAF1450F4BD1A00549D5B9696D1CCF
:1006D00024F44074761E0E9888478246002E0CDD66
:1006E0002B2804D0BAF12D0F07D144F48074B969D6
:1006F0006D1C0E9888478246761EE00501D52D2197
:1007000000E02B2108F8011BCDF82C8021E00DF131
:100710002901761E44F4007488450CD2AAF13000F9
:1007200010F0FF0088F8000002D10B99884509D924
:1007300008F1010806E0E00501D5244801E042F295
:100740000F708146B9696D1C0E98884782460F98D4
:100750000560002E04DD504607F0C2FB0028D6D10C
:10076000F9690E988847FF208BF8000088F8000090
:100770000020069007904B466A4608A906A8FFF796
:1007800077FEA00502D46FF001002AE714F0240FD1
:100790000AD0E00714D1DDE906123868031D3B607A
:1007A0000068C0E900120BE0DDE9060100F0EAF99B
:1007B0000146E00704D13868021D3A600068016014
:1007C00028460EE7000014400000F03FF1D8FFFF7C
:1007D0002DE9FE4F804681EA0300C00F0C460090D1
:1007E00021F0004123F00045B8EB0200A94105D2F9
:1007F0004046214690461C460B46024623F00040E8
:10080000104347D0270DC7F30A00C3F30A510290E3
:10081000401A019040286BDAC3F3130040F4801BA8
:100820000098924620B10023D2EB030A63EB0B0B36
:1008300001985946C0F14002504600F006FA0646BB
:100840000D4650465946019A00F01EFA10EB08007A
:100850006141002487EA115284EAE7731A4340D0C9
:10086000009A62B3019A012A4FEA075215DC001B75
:1008700061EB02014FF0004202EA0752CDE900426B
:10088000001C41F5801132462B4600F097FA03B068
:10089000BDE8F08F40462146F9E7001B61EB0201FD
:1008A000001C41F5801300185B412018A2F50017C9
:1008B00047EB030140EAD570B6196D4111E06D08B0
:1008C0004FEA360645EAC0754FEA0752001B61EB56
:1008D0000201001C41F5801149084FEA300000195F
:1008E000514132462B4603B0BDE8F04F00F057BAF5
:1008F0000098012240000023D0EB020263EBE0737A
:10090000009821464FEAE074B8EB000061EB040167
:10091000E9E783F000435BE781F0004158E72DE908
:10092000FE4F81EA030404F0004421F000410094EA
:100930004FF0000B23F0004350EA01045ED052EA6E
:1009400003045BD0C3F30A54C1F30A552C44A4F248
:10095000F3340194A0FB0254C1F3130141F480115C
:10096000C3F3130343F4801301FB024400FB034E63
:10097000840A970A44EA815447EA8357A4FB07682C
:1009800002958D0A05FB07854FEA932C04FB0C5456
:100990002705029D4FEA065847EA1637B5EB0805CA
:1009A0006EEB070C870E920E47EA811742EA83121C
:1009B000A7FB0201B6EB0B0164EB00042B0D43EA2D
:1009C0000C335E1844EB1C50DA465146E7FB02013B
:1009D000C5F313044FEA0B3343EA14534FEA0432CE
:1009E000019C43EA0603A4F10C040294009CCDE9A7
:1009F00000B400F0E3F903B0BDE8F08F0020014639
:100A0000F9E72DE9F04D81EA030404F0004B21F0F1
:100A1000004514464FF0000A23F0004150EA050259
:100A200020D054EA01021DD0C5F30A570246C5F38F
:100A30001303C1F31300C1F30A5640F4801543F4C5
:100A40008013A7EB0608101BD64608F2FD3873EB9F
:100A5000050002D308F1010801E092185B41B8F1EA
:100A6000000F03DA00200146BDE8F08D00204FF4AE
:100A70008011064684460EE0171B73EB050705D36D
:100A8000121B63EB050306434CEA010C49084FEACD
:100A9000300092185B4150EA0107EDD152EA0300A1
:100AA00012D082EA040083EA0501084305D0101B36
:100AB000AB4106D20122002306E000224FF00043A2
:100AC00002E06FF0010253101AEB06004CEB0851E4
:100AD00010EB0A0041EB0B01BDE8F04D00F05FB9EF
:100AE0000EB540F2334102910021CDE900110A46D2
:100AF0000B4600F063F903B000BDC1F30A5210B514
:100B0000C1F3130140F2FF3341F480119A4201DA3C
:100B1000002010BD40F233439A42A2F2334203DC7C
:100B2000524200F0A1F810BD904010BD00F000420C
:100B300030F000400AD0C10D01F56071C0F316001D
:100B400042EA0151C20840071143704700200146A4
:100B50007047000030B5041E71F1000404DB4FF053
:100B60000044404264EB0101141E73F1000405DBF4
:100B70001C464FF00043524263EB0403994208BF06
:100B8000904230BD01F0004330B421F0004150EA02
:100B9000010206D00A0DA2F56072C1F31301002A0A
:100BA00002DC30BC00207047440F44EAC104C1009D
:100BB000E01830BC00EBC25000F0BAB830B50B46BC
:100BC000014600202022012409E021FA02F59D427D
:100BD00005D303FA02F5491B04FA02F52844151E51
:100BE000A2F10102F1DC30BD2DE9F05F05460020E5
:100BF00092469B4688460646814640241BE028468E
:100C000041464746224600F02FF853465A46C01A3E
:100C1000914110D311461846224600F016F82D1ABD
:100C200067EB01084F4622460120002100F00DF835
:100C300017EB00094E41201EA4F10104DFDC4846F9
:100C400031462A464346BDE8F09F202A04DB203A7D
:100C500000FA02F1002070479140C2F1200320FA0F
:100C600003F3194390407047202A04DB203A21FA0D
:100C700002F00021704721FA02F3D040C2F12002B5
:100C80009140084319467047202A06DBCB17203ACB
:100C900041FA02F043EAE07306E041FA02F3D04081
:100CA000C2F1200291400843194670473A2800D209
:100CB000303820F02002412A01D3A2F137008842C7
:100CC00001D34FF0FF307047026811441378016080
:100CD00018467047D16004495161044911620021EE
:100CE0001161114600F0F4B8C90C0008C50E0008E7
:100CF000426842B1016811F8013B23B1521EC0E9BC
:100D00000012184670470121C160881E7047426872
:100D10005AB1C368016843B983688B4205D0491E44
:100D2000521CC0E90012002070474FF0FF3070479E
:100D30000029A8BF7047401C490008BF20F00100EF
:100D4000704710B4B0FA80FC00FA0CF050EA0104CD
:100D500004BF10BC704749B1CCF1200421FA04F45F
:100D600011FA0CF118BF012121430843A3EB0C0138
:100D7000CB1D4FEA00614FEA102042BF002010BC9B
:100D8000704700EBC35010440029A4BF10BC70474B
:100D9000401C490008BF20F0010010BC704710B58E
:100DA000141E73F1000408DA401C41F1000192188E
:100DB0005B411A4301D120F0010010BD2DE9F04D37
:100DC00092469B4611B1B1FA81F202E0B0FA80F28C
:100DD00020329046FFF739FF04460F4640EA0A00EA
:100DE00041EA0B0153465A46084313D0114653EAD1
:100DF000010019D0C8F140025046FFF735FF054603
:100E00000E46504659464246FFF71FFF084305D09D
:100E1000012004E020463946BDE8F08D002005435E
:100E200046EAE0762C4337430A986305E40AA0EBD0
:100E300008000022FD0A44EA47540A3002D5002087
:100E40000146E9E7010510196941DDE90845001986
:100E50006941BDE8F04DA2E70EB540F2334202927F
:100E60000022CDE900221346FFF7A8FF03B000BD22
:100E7000C1F30A52C1F3130140F2FF3341F4801170
:100E80009A4202DA00200146704740F233439A4208
:100E9000A2F2334202DC5242FFF7E6BEFFF7D5BEB4
:100EA000064C074D06E0E06840F0010394E80700B7
:100EB00098471034AC42F6D3FFF76AF9D8AD000872
:100EC000F8AD0008C0B24FF4F05100F099B900003D
:100ED0002DE9F34F8BB04FF0000801F10C000C46E8
:100EE0004FF0010B46460DF1080A0190626901219D
:100EF00001989047051E2DD0252D2CD0216A8847BA
:100F0000C0B16269012101989047216A8847002891
:100F1000F7D1411E62690198904700E0761CA169F3
:100F20000B988847216A88470028F7D1E1690B9818
:100F30008847DBE7A1690B9888470746A84201D19B
:100F4000761CD3E7E1690B9888477F1C02D1B8F182
:100F5000000F6FD047E1002762693D46394601988E
:100F600090472A2804D16269012101989047012500
:100F7000DFF888926269012101989047A0F1300161
:100F80000A290AD24F45E5DC07EB870100EB410750
:100F9000303FDFD445F01005ECE7E90601D46FF0EF
:100FA00000476C280AD04C2814D0682815D06A282D
:100FB0000DD074281CD07A281AD01DE06269012156
:100FC000019890476C2802D045F0040514E045F0E4
:100FD00002050DE045F020050AE062690121019853
:100FE0009047682802D045F0080505E045F4006503
:100FF0006269012101989047C4E9015765283DD0F5
:1010000019DC58287AD00CDC452837D004DC252898
:1010100026D0412831D131E046282FD047282CD185
:101020002CE05B2877D0612828D063287CD0642806
:1010300023D15AE0D1E06F2848D008DC66281DD0C3
:1010400067281BD0692821D06E2816D127E0702888
:1010500045D0732868D0752847D078280DD14DE049
:10106000A1690B988847054625283FF469AFE169D7
:101070000B9888476D1C3FF46AAFB4E023466A467C
:101080006FF001000B99FFF787FA9FE045F04000F1
:101090006060A80723464FF0000236D43EE0E80720
:1010A0007FF447AF2068011D21600068290501D544
:1010B00006701BE7290701D5068017E7A90703D5A6
:1010C000F117C0E9006111E706600FE745F0400045
:1010D0006060A80723464FF0080216D41EE040F6D1
:1010E0000E0125EA0100606016E045F040006060F6
:1010F000A80723464FF00A0207D40FE045F040004E
:101100006060A80708D5234610226FF001000B99F4
:10111000AFF300805AE007E0234610226FF0010091
:101120000B99FFF7FFF851E04FF000094F464B468F
:10113000632802D05B2807D041E02079C00601D4A3
:101140000120A06001273AE06269012101989047DF
:101150005E2805D14FF00109626949460198904720
:10116000216939B900210A46534643F82120491C18
:101170000829FADBB0B3216969B9C11700EBD16264
:1011800053110AEB830122F01F02821A01200B681F
:10119000904003430B6062690121019890475D28EC
:1011A000E8D1B9F1000F09D00020514651F82020B4
:1011B000D24341F82020401C0828F7DB02AB22462E
:1011C00000976FF001000B99AFF3008000280CDA54
:1011D000401C08D1BBF1000F05D04FF0FF300DB01F
:1011E000BDE8F08FFFE74046F9E7E90701D108F1D4
:1011F000010806444FF0000B78E60000CCCCCC0C84
:101200007F2801D9002208E0064A02EB5002C007FD
:10121000127800D1120902F00F020120904008401C
:101220007047000098AD000870B58C1810F8015B8D
:1012300015F0070301D110F8013B2A1106D110F86F
:10124000012B03E010F8016B01F8016B5B1EF9D173
:101250002B0705D40023521E0DD401F8013BFAE7F9
:1012600010F8013BCB1A921C03E013F8015B01F864
:10127000015B521EF9D5A142D8D3002070BD0029D0
:10128000816814BF41F0010121F0010181607047C4
:101290000849D1F80423084B1A40D0E9003C43EA3E
:1012A0000C03D0E902C04CEA000018431043C1F817
:1012B0000403704700200140E030FCFF0021016082
:1012C00041608160C16070470029816814BF41F4AA
:1012D000807121F48071816070470029816814BF9A
:1012E00041F4007121F400718160704710B44268CC
:1012F00091F804C022F4807222F040720B6842EA36
:101300000C221A43426082680C4B4C791A40D1E996
:1013100003C343EA0C03D1F808C04CEA440C43EA87
:101320000C031A438260C26A097D22F47002491ECE
:10133000C9B242EA0151C16210BC7047FDF7FFC05B
:1013400030B4072409290DD9C568A1F10A0C0CEBAA
:101350004C0C04FA0CF425EA040403FA0CF32343BE
:10136000C3600AE0056901EB410C04FA0CF425EABC
:10137000040403FA0CF3234303611F23072A0CD24E
:10138000D0F834C0521E02EB820293402CEA0303D1
:1013900091401943416330BC70470D2A0CD2D0F8FC
:1013A00030C0D21F02EB820293402CEA030391402B
:1013B0001943016330BC7047D0F82CC00D3A02EBE2
:1013C000820293402CEA030391401943C16230BC6E
:1013D0007047816841F08041816070470021016061
:1013E000017141718160C160016101210175704726
:1013F0002DE9F04184B01C4615460E4680460A9FF2
:1014000000F027F80021ADF80050ADF80210ADF85B
:10141000081001966946404603F0AEFF01221146CE
:10142000404603F006FF0121404603F0E5FE40463A
:1014300003F043FF8DF80C008DF80D408DF80E7011
:1014400001208DF80F0003A802F0EEFF04B0BDE804
:10145000F081A0F18041B1F5803143D0B0F1804FEF
:1014600048D0A0F18041B1F580613FD0A0F180412A
:10147000B1F5006142D0A0F18041B1F5406141D0A9
:10148000A0F18041B1F5805140D0A0F18041B1F58B
:10149000A0513FD0A0F18041B1F582313ED0A0F102
:1014A0008041B1F5A0313DD0A0F18041B1F5A2312C
:1014B0003CD0A0F18041B1F5A4313BD0A0F18041F6
:1014C000B1F5C0513AD0A0F18041B1F5E05139D029
:1014D000A0F18041B1F5005118BF70470121080209
:1014E00003F0E6B80121084603F0EEB8012102201E
:1014F00003F0DEB80121084603F0DAB80121042028
:1015000003F0D6B80121082003F0D2B80121102041
:1015100003F0CEB80121202003F0CAB80121022037
:1015200003F0D2B80121080403F0CEB80121480429
:1015300003F0CAB80121880403F0C6B80121402095
:1015400003F0B6B80121802003F0B2B8FEE7000036
:1015500038B5124C0221204600F072FF002808BF67
:1015600038BD0421204600F01DFF0D49204600F043
:10157000FFFE0C4A0021204600F0EAFF0A48C1693C
:101580000C3000910FC803F015FA01F097FA0748E4
:10159000D0F8A310491CC0F8A31038BD0064004067
:1015A00008000032F8070020EC070020C8040020E3
:1015B00010B5094C0121204600F042FF002808BF69
:1015C00010BD0121204600F0EDFE20460322BDE8BB
:1015D0001040002102F070BF0064004010B582B0DE
:1015E00008490B20CDE9000100234FF4007206A149
:1015F000084809F093F8044607F0CAFB846202B079
:1016000010BD0000EC07002043414E325F5461736F
:101610006B000000C920000810B5FF4C86B0022105
:10162000204600F00DFF002804BF06B010BD0421C5
:10163000204600F0B7FEF949204600F099FE6A46C0
:101640000021204600F084FFF54900980860F54924
:10165000D1F8A320521CC1F8A32041092FD00229A0
:1016600000F07281042900F0B98206291CBF06B07F
:1016700010BD00F01F000F2800F0B98400F316849D
:10168000042800F0A18400F3EA83012800F03984E3
:1016900003281CBF06B010BDE3489DF80B1080F86E
:1016A0002C109DF80C1080F82D109DF80D1080F86E
:1016B0002E109DF80E1080F82F1006B010BD00F00F
:1016C0001F000F2872D044DC042870D018DC0128D9
:1016D0006FD003281CBF06B010BDD3489DF80B1077
:1016E00080F820109DF80C1080F821109DF80D1046
:1016F00080F822109DF80E1080F8231006B010BD5F
:10170000092878D00A281CBF06B010BDC6489DF82D
:101710000B1080F8E8109DF80C1080F8E9109DF887
:101720000D1080F8EA109DF80E1080F8EB109DF86F
:101730000F1080F8F8109DF8101080F8F9109DF83F
:10174000111080F8FA109DF8121080F8FB1006B006
:1017500010BD162850D01D287ED01E287DD01F28F1
:101760001CBF06B010BDB0489DF80B1080F870107B
:101770009DF80C1080F871109DF80D1080F8721013
:101780009DF80E1080F873109DF80F1080F88010EF
:101790009DF8101080F881109DF8111080F88210CB
:1017A0009DF8121080F8831006B010BD75E062E05D
:1017B000FFE79D489DF80B1080F8A0109DF80C10D5
:1017C00080F8A1109DF80D1080F8A2109DF80E1061
:1017D00080F8A3109DF80F1080F8B0109DF810103D
:1017E00080F8B4109DF8111080F8B8109DF8121010
:1017F00080F8BC10D8E719E08B489DF80B100170F9
:101800009DF80C1041709DF80D1081709DF80E1020
:10181000C1709DF80F1001749DF8101041749DF86F
:10182000111081749DF81210C174BDE77E489DF8B7
:101830000B1080F808119DF80C1080F809119DF824
:101840000D1080F80A119DF80E1080F80B119DF80C
:101850000F1080F8181101E053E040E09DF81010DF
:1018600080F819119DF8111080F81A119DF81210C6
:1018700080F81B1198E76C489DF80B1080F8301029
:101880009DF80C1080F831109DF80D1080F8321082
:101890009DF80E1080F8331086E763489DF80B1012
:1018A00080F838119DF80C1080F839119DF80D1052
:1018B00080F83A119DF80E1080F83B119DF80F103A
:1018C00080F848119DF8101080F849119DF811100A
:1018D00080F84A119DF8121080F84B1164E75248C5
:1018E0009DF80B1080F860109DF80C1080F86110C6
:1018F0009DF80D1080F862109DF80E1080F86310AE
:1019000052E749489DF80B1080F840109DF80C10E4
:1019100080F841109DF80D1080F842109DF80E10CF
:1019200080F843109DF80F1080F850109DF81010AB
:1019300080F851109DF8111080F852109DF8121087
:1019400080F8531030E700BF00F01F000F2862D06E
:1019500040DC04286AD016DC012874D003287FF408
:1019600023AF31489DF80B1080F824109DF80C101F
:1019700080F825109DF80D1080F826109DF80E10A7
:1019800080F8271010E709287DD00A287FF40CAFD3
:1019900025489DF80B1080F8EC109DF80C1080F88D
:1019A000ED109DF80D1080F8EE109DF80E1080F8E7
:1019B000EF109DF80F1080F8FC109DF8101080F8C3
:1019C000FD109DF8111080F8FE109DF8121080F89F
:1019D000FF10E9E616285AD01D2872D01E2871D0B3
:1019E0001F287FF4E1AE10489DF80B1080F87410AA
:1019F0009DF80C1080F875109DF80D1080F8761089
:101A00009DF80E1080F877109DF80F1080F8841064
:101A10009DF810100CE08AE00068004008000032D9
:101A200014000020C8040020790500206DE00AE0C1
:101A300080F885109DF8111080F886109DF812101E
:101A400080F88710B0E6FE489DF80B1080F8A410CF
:101A50009DF80C1080F8A5109DF80D1080F8A610C8
:101A60009DF80E1080F8A7109DF80F1080F8B110A7
:101A70009DF8101080F8B5109DF8111080F8B9107D
:101A80009DF8121000E01EE080F8BD108CE6EC48D6
:101A90009DF80B1001719DF80C1041719DF80D100F
:101AA00081719DF80E10C1719DF80F1001759DF8A0
:101AB000101041759DF8111081759DF81210C175B7
:101AC00072E668E055E0DE489DF80B1080F80C11D6
:101AD0009DF80C1080F80D119DF80D1080F80E1176
:101AE0009DF80E1080F80F119DF80F1080F81C1152
:101AF0009DF8101080F81D119DF8111080F81E112E
:101B00009DF8121080F81F114EE6CD489DF80B107D
:101B100080F834109DF80C1080F835109DF80D10E9
:101B200080F836109DF80E1080F837103CE6C44857
:101B30009DF80B1080F83C119DF80C1080F83D11B9
:101B40009DF80D1080F83E119DF80E1080F83F11A1
:101B50009DF80F1080F84C119DF8101080F84D1171
:101B60009DF8111080F84E119DF8121080F84F1159
:101B70001AE6B3489DF80B1080F864109DF80C101D
:101B800080F865109DF80D1080F866109DF80E1015
:101B900080F8671008E6AA489DF80B1080F84410FA
:101BA0009DF80C1080F845109DF80D1080F8461037
:101BB0009DF80E1080F847109DF80F1080F8541013
:101BC0009DF8101080F855109DF8111080F85610EF
:101BD0009DF8121080F85710E6E500BF00F01F00D6
:101BE0000F287CD040DC04287AD016DC012866D08F
:101BF00003287FF4D9AD92489DF80B1080F8281087
:101C00009DF80C1080F829109DF80D1080F82A100E
:101C10009DF80E1080F82B10C6E5092874D00A280C
:101C20007FF4C2AD86489DF80B1080F8F0109DF847
:101C30000C1080F8F1109DF80D1080F8F2109DF84E
:101C40000E1080F8F3109DF80F1080F800119DF829
:101C5000101080F801119DF8111080F802119DF804
:101C6000121080F803119FE516284ED01D287CD055
:101C70001E287BD01F287FF497AD71489DF80B106C
:101C800080F878109DF80C1080F879109DF80D10F0
:101C900080F87A109DF80E1080F87B109DF80F10D8
:101CA00080F888109DF8101080F889109DF81110A8
:101CB00080F88A109DF8121080F88B1074E5604847
:101CC0009DF80B1080F8A8109DF80C1080F8A91052
:101CD0009DF80D1080F8AA109DF80E1001E065E047
:101CE00052E080F8AB109DF80F1080F8B2109DF80C
:101CF000101080F8B6109DF8111080F8BA109DF8F9
:101D0000121080F8BE104FE519E04D489DF80B10F9
:101D100001729DF80C1041729DF80D1081729DF8B2
:101D20000E10C1729DF80F1001769DF810104176CB
:101D30009DF8111081769DF81210C17634E5404867
:101D40009DF80B1080F810119DF80C1080F81111FF
:101D50009DF80D1080F812119DF80E1080F81311E7
:101D60009DF80F1080F8201101E053E040E09DF84D
:101D7000101080F821119DF8111080F822119DF8A3
:101D8000121080F823110FE52D489DF80B1080F8F4
:101D900038109DF80C1080F839109DF80D1080F85F
:101DA0003A109DF80E1080F83B10FDE424489DF891
:101DB0000B1080F840119DF80C1080F841119DF82F
:101DC0000D1080F842119DF80E1080F843119DF817
:101DD0000F1080F850119DF8101080F851119DF8E7
:101DE000111080F852119DF8121080F85311DBE4A5
:101DF00013489DF80B1080F868109DF80C1080F8BF
:101E000069109DF80D1080F86A109DF80E1080F88A
:101E10006B10C9E40A489DF80B1080F848109DF833
:101E20000C1080F849109DF80D1080F84A109DF8AC
:101E30000E1080F84B109DF80F1080F8581001E03C
:101E4000790500209DF8101080F859109DF81110A8
:101E500080F85A109DF8121080F85B10A4E409284D
:101E600071D00A287FF4A0AC8D489DF80B1080F843
:101E7000F4109DF80C1080F8F5109DF80D1080F806
:101E8000F6109DF80E1080F8F7109DF80F1080F8EE
:101E900004119DF8101080F805119DF8111080F8BC
:101EA00006119DF8121080F807117DE416284BD01A
:101EB0001D287DD01E287CD01F287FF475AC784863
:101EC0009DF80B1080F87C109DF80C1080F87D10A8
:101ED0009DF80D1080F87E109DF80E1080F87F1090
:101EE0009DF80F1080F88C109DF8101080F88D1060
:101EF0009DF8111080F88E109DF8121080F88F1048
:101F000052E467489DF80B1080F8AC109DF80C1057
:101F100080F8AD109DF80D1080F8AE109DF80E10F1
:101F200080F8AF109DF80F1080F8B3109DF81010D6
:101F300080F8B7109DF8111080F8BB109DF81210B2
:101F400080F8BF1030E419E055489DF80B1001737C
:101F50009DF80C1041739DF80D1081739DF80E10C3
:101F6000C1739DF80F1001779DF8101041779DF80F
:101F7000111081779DF81210C17715E448489DF83B
:101F80000B1080F814119DF80C1080F815119DF8B5
:101F90000D1080F816119DF80E1080F817119DF89D
:101FA0000F1080F824119DF8101080F8251101E021
:101FB00053E03FE09DF8111080F826119DF81210B3
:101FC00080F82711FFF7F0BB35489DF80B1080F81B
:101FD0003C109DF80C1080F83D109DF80D1080F815
:101FE0003E109DF80E1080F83F10FFF7DDBB2C4827
:101FF0009DF80B1080F844119DF80C1080F84511E5
:102000009DF80D1080F846119DF80E1080F84711CC
:102010009DF80F1080F854119DF8101080F855119C
:102020009DF8111080F856119DF8121080F8571184
:10203000FFF7BABB1A489DF80B1080F86C109DF89A
:102040000C1080F86D109DF80D1080F86E109DF842
:102050000E1080F86F10FFF7A7BB11489DF80B100A
:1020600080F84C109DF80C1080F84D109DF80D1064
:1020700080F84E109DF80E1080F84F109DF80F104C
:1020800080F85C109DF8101080F85D109DF811101C
:1020900080F85E109DF8121080F85F10FFF784BB87
:1020A0007905002010B5074C0121204600F0C8F941
:1020B000002808BF10BD01212046BDE8104000F0F7
:1020C00071B900000068004082B008F0FBFB934E3D
:1020D00000250090924F934C35710121684607F01E
:1020E00047FE3079002804BF0120307103F032FD33
:1020F00001F05AF801F072FF8B48007800288B48F5
:1021000001780CBF41F0010121F001010170884804
:1021100090ED000AB5EEC00AF1EE10FA16D085482F
:1021200001688548884281490A78D4BF22F00202BA
:1021300042F002020A708149096881427B480178B5
:10214000B4BF41F0040121F0040101707C487A49D8
:10215000006888427EDD7B480088401C1FFA80FBB7
:102160007848A0F800B03888401C1FFA80FA7648FA
:10217000A7F800A00188491C1FFA81F9A0F8009077
:1021800072480188491C1FFA81F8A0F80080704845
:102190000188491C1FFA81FCA0F800C06D48018825
:1021A000491C8BB203806C480188491C8AB20280AA
:1021B0006A480188491C89B201806948D0F830E238
:1021C000BEF1000F1CBFDFF87CB1ABF800504BD064
:1021D000DFF890B1DBF83CB2BBF1000F18BF3D80D7
:1021E0004ED000BFD0F800A2BAF1000F1CBFDFF83C
:1021F0005891A9F800504FD0D0F83C92B9F1000F97
:102200001CBFDFF84881A8F8005051D0DFF8588192
:10221000D8F80C82B8F1000F1CBFDFF834C1ACF85D
:10222000005051D0DFF844C1DCF808C2BCF1000F07
:102230001CBF484B1D8053D0D0F83832002B1CBF38
:10224000454A158056D000BFD0F83402002818BF88
:10225000424800E002E018BF058055D0D6F80510CE
:10226000491CC6F8051038E7BBF52F7F94F800B07D
:102270002CBF4BF0010B2BF0010B84F800B0A7E74B
:10228000BAF52F7F94F800A02CBF4AF0020A2AF07A
:10229000020A84F800A0A5E7B9F52F7F94F8009012
:1022A0002CBF49F0040929F0040984F80090A3E741
:1022B000B8F52F7F94F800802CBF48F0080828F06C
:1022C000080884F80080A1E7BCF52F7F94F800C0CF
:1022D0002CBF4CF0100C2CF0100C84F800C0A1E7BF
:1022E000B3F52F7F23782CBF43F0200323F0200386
:1022F0002370A1E7B2F52F7F22782CBF42F0400275
:1023000022F0400222709FE72078B1F52F7F2CBF8A
:1023100040F0800020F0800020709FE7EC07002054
:10232000900200208D0200205A0100203C02002073
:102330005C020020BC0100200000F041C001002030
:10234000B80100208E02002092020020940200209A
:1023500096020020980200209A0200209C02002091
:102360000000414200004042008040420080414263
:102370000B4A914202BF002181617047C1F31302F1
:1023800011F0007F1CBFC260704711F0806F1CBF4E
:102390000261704711F0006F14BF826042607047A5
:1023A0007000F03010B4082304224FF0100CB1F587
:1023B000007F40D021DC202902BF036110BC7047A0
:1023C00010DC012901BF1D49816010BC7047042940
:1023D00002BFC36010BC7047082908BFC0F80CC01A
:1023E00010BC7047402902BFC0F810C010BC704735
:1023F000B1F5807F1FD010BC70470024B1F5004FAD
:1024000008D00BDCB1F5806F15D0B1F5006F1CBFA3
:1024100010BC70478461426010BC7047B1F5803FCA
:1024200002BF436010BC7047B1F5003F08BFC0F861
:1024300004C010BC7047426010BC7047010101002D
:102440000246002053690B4208BF7047B1F5807FF8
:1024500064D01CDC082949D00CDC012938D00229C1
:102460003ED0042918BF7047D168002011F0080F32
:1024700034D1704710293FD0202943D0402918BFBC
:1024800070471169002011F0100F27D17047B1F586
:10249000004F55D00FDCB1F5007F45D0B1F5806F0E
:1024A00048D0B1F5006F18BF70479169002011F056
:1024B000700F13D17047B1F5803F29D0B1F5003FBF
:1024C00018BF70475168002011F0100F06D17047F7
:1024D00091681E4A0020114208BF704701207047D2
:1024E000D168002011F0030FF8D17047D1680020A7
:1024F00011F0100FF2D170471169002011F0030F95
:10250000ECD170471169002011F0080FE6D1704737
:102510005168002011F0080FE0D170479169002048
:1025200011F0010FDAD170479169002011F0020F0C
:10253000D4D170479169002011F0040FCED17047BB
:102540005168002011F0040FC8D17047010101004B
:1025500000EB0113D3F8B0C11CF0040C82F808C0E2
:10256000D3F8B0C107BF4FEA5C5CC2F800C04FEAC5
:10257000DC0CC2F804C0D3F8B0C10CF0020C82F835
:1025800009C0D3F8B4C10CF00F0C82F80AC0D3F81C
:10259000B4C14FEA1C2C82F813C0D3F8B8C182F83A
:1025A0000BC0D3F8B8C14FEA1C2C82F80CC0D3F88A
:1025B000B8C14FEA1C4C82F80DC0D3F8B8C14FEA3D
:1025C0001C6C82F80EC0D3F8BCC182F80FC0D3F8DF
:1025D000BCC14FEA1C2C82F810C0D3F8BCC14FEA32
:1025E0001C4C82F811C0D3F8BC311B0E937421B17E
:1025F000016941F0200101617047C16841F020018B
:10260000C160704710B402460020936813F0806FD9
:1026100051D000BF02EB0012D2F8803103F0010369
:10262000C2F880310B7A002B54D0D2F880C14C68AC
:102630004CEA030391F809C04CEAC40C43EA0C03CA
:10264000C2F880318B7A03F00F038B72D2F8843199
:1026500023F00F03C2F88431D2F8843191F80AC014
:1026600043EA0C03C2F88431CB7A91F80EC00C7B9C
:1026700043EA0C6391F80DC04FEA0C4C4CEA042C71
:1026800043EA0C03C2F88831CB7B91F812C043EACD
:102690000C6391F811C0097C4FEA0C4C4CEA012103
:1026A0001943C2F88C11D2F8801141F00101C2F82F
:1026B000801110BC7047906810F0006F18BF0120A7
:1026C000A8D1906810F0805F14BF02200420A1D12F
:1026D00010BC7047D2F8803191F809C043EA0C036E
:1026E000B1F800C043EA4C53AAE700001A4A002997
:1026F00004BF8068194907D0012904BF80681849C0
:1027000002D0022902D022E0084002E08068154988
:102710000840A0F10061A1F58071904215D008DC5D
:10272000A8B16FF08061401808BF7047022810D030
:102730000BE0B1F5007F0CD0A1F10060B0F57F4057
:1027400008BF7047B0F5003F03D00020704702205B
:1027500070470120704700000001000803000004DA
:1027600000030008000003102DE9F047534C86B029
:10277000207C401C10F0FF00207404BF06B0BDE8B0
:10278000F0874F4800260178491CC9B2017015290D
:1027900088BF067060784B4F4FF0530940F6FF78C2
:1027A00028B1082000F0AAF86078002843D18DF8FD
:1027B000086008208DF809608DF80A004248CDF8BD
:1027C0000090002500788DF80B0040488DF80C60D3
:1027D000694600788DF80D003D488DF80E60007850
:1027E0008DF80F003B4800788DF810003A480078CB
:1027F0008DF811008DF812603846FFF703FF82460E
:1028000051463846FFF772FF20B945453CBF681C6A
:1028100085B2F5D33148267106603148E6700670FE
:10282000304806703048668306603048067030488D
:10283000067030480670207C02283CBF06B0BDE818
:10284000F08708208DF808608DF80960CDF80090B9
:102850008DF80A00607B00258DF80B00032804BF6B
:102860006673A07A04D0052804BF6673E07A01D1AC
:102870008DF80C0020488DF80D608DF80E60006812
:10288000010C8DF80F10010A8DF810108DF8110051
:1028900001208DF8120069463846FFF7B3FE8146E5
:1028A00049463846FFF722FF20B945453CBF681C22
:1028B00085B2F5D3267406B0BDE8F0873C0200204F
:1028C0002302002000640040630100202602002053
:1028D000340200202802002062010020C4010020F0
:1028E000590100205D010020E80100206001002066
:1028F0001D0200205F01002014020020F0B585B009
:1029000000248DF808408DF809408DF80A002C4805
:102910005221009190ED000A2146BCEEC00A10EE53
:10292000100A8DF80B00274840788DF80C002648D7
:1029300003682648002B027822F0030218BF42F0F9
:1029400001020270224A1278D34013F0010F0ED018
:1029500000788DF80D001F4850F822008DF8100007
:10296000010C8DF80E10010A8DF80F1007E08DF89C
:102970000D108DF80E108DF80F108DF8101010EE50
:10298000100A164E8DF811001348694600788DF82C
:1029900012003046FFF736FE074640F6FF7539460F
:1029A0003046FFF7A3FE20B9AC423CBF601C84B2A6
:1029B000F5D3AC422CBF0120002005B0F0BD0000D3
:1029C000B80100203C020020C40100205901002071
:1029D0002302002098080020E80100200064004045
:1029E0002B4830B4018F2B482B4B2C4C00880122F4
:1029F000081A0021DFF8A8C0142808DB9FED290A77
:102A000083ED000A2170CCF8942230BC7047A0F10D
:102A10000F05052D08D29FED240A83ED000A2170D1
:102A2000CCF8942230BC7047A0F10A05052D08D2DD
:102A30009FED1E0A83ED000A2170CCF8942230BC71
:102A40007047451F052D08D29FED190A83ED000A36
:102A50002170CCF8942230BC7047451E042D08D25A
:102A6000B3EE040A83ED000A2170CCF8942230BC46
:102A700070470128A4BF30BC70470E489FED0E0A76
:102A8000027083ED000ACCF8941230BC704700004D
:102A900050010020560200205C020020430200206A
:102AA00000004042000034430000C8420000704271
:102AB0000000204252020020000000008E49C87829
:102AC000012818BF70472DE9F04F85B000274F75DA
:102AD000D1E91F40D1F854C00190D1E91D300090D8
:102AE000087A02908548B1F82A9091F813A00278EC
:102AF00090F803B0B0F80180D1F88C60CDF8108068
:102B0000808802F00F0502F0F0080390487D421C17
:102B1000944507D17A4F4FF0000907F800B001271C
:102B200087403E43BAF1000F06D0944543D1022DB1
:102B30005FD0032D74D08CE0012D22D0022D08BF70
:102B4000944538D1DFF8BCE11EF8007007F10107A9
:102B5000FFB20EF800704FF0010E0EFA00FE23EAED
:102B60000E03012F36D0DFF89CE1EE2F24BFEE27B5
:102B70000EF800700027DFF890E100BF0EF800703B
:102B800067E0944565D1604F17F800E00EF1010E43
:102B90000EF0FF0E07F800E0BEF1010F0CD0BEF101
:102BA000EE0F24BF4FF0EE0E07F800E00027DFF82D
:102BB00054E10EF800704CE0012707FA00FE02977E
:102BC000009F4EEA0707DFF844E1009700278EF8E0
:102BD0000070EBE74F7A23EA0E0327F0030747F074
:102BE00002074F727746DDF800E02EEA07070097EC
:102BF000C0E7DFF810E11EF800707F1CFFB20EF88E
:102C000000704FF0010E0EFA00FE23EA0E03012FB2
:102C100007D0DFF8F0E0EE2F28BFEE27AED218E0A5
:102C20000BE04F7A27F0030747F002074F72774611
:102C3000DDF804E047EA0E070AE0DFF8C8E0002705
:102C40000EF80070012707FA00FE019F27EA0E0721
:102C50000197B8F1100F2CD0B8F1200F08BF9445A0
:102C600012D14F7ADFF8A8E027F00C0747F00807E9
:102C70004F724FF0010707FA00F724EA07044FF0FC
:102C8000000700BF0EF80070D0B248751528FFF499
:102C90003DAFCC6701984B67C1F88000009888670A
:102CA00002980872C1F88C60A1F82A9005B0BDE8BE
:102CB000F08F9445E8D1DFF858E01EF800707F1CD3
:102CC000FFB20EF80070012F04D0EE2F28BFEE27C0
:102CD000D8D2D9E7049FDFF83CE07FBA4EF82070E5
:102CE000039F0EF1540E7FBA2EF81070012707FAD9
:102CF00000F00443C8E7000050010020F701002065
:102D00006A0900208209002097090020450200205E
:102D1000AC090020EC0800200A4611F0800F01F0F9
:102D20007F0310B503EB830100EBC10114BF01F574
:102D30008E7101F55D710B70D2094A7004F088FD47
:102D4000002010BD10B50A4611F0800F01F07F037E
:102D500014BF03EB830102EB820100EBC10114BF3E
:102D600001F58E7101F55D714FF0000C81F802C024
:102D70000B70D2094A7004F054FD002010BD70B5EC
:102D80008C4611F0800F01F07F0404EB840100EB0E
:102D9000C10114BF01F58E7101F55D710C705FEA20
:102DA000DC1C81F801C08A60CB7018BFCC80022B7C
:102DB00004BF00220A7104F005FD002070BD01F07F
:102DC0007F0C0CEB8C0110B500EBC101C1F888330E
:102DD000C1F880230023C1F88C3381F8753381F862
:102DE00074C3C37801F55D71012B08BF0A611CF043
:102DF000FF0F03D004F066FD002010BD04F06DFC51
:102E0000FAE70069002261F30A12016811430160C8
:102E1000704710B50A4611F0800F01F07F0314BF10
:102E200003EB830102EB820100EBC10114BF01F54A
:102E30008E7101F55D714FF0010C81F802C00B70CD
:102E4000D2094A7004F024FD002010BD11F07F0C5F
:102E500010B50CEB8C0100EBC1014FF0010481F8BF
:102E60001D4181F81CC1C1F82821C1F82C2101F5B0
:102E70008E714FF00002C1E9053203D004F022FD4B
:102E8000002010BD04F029FCFAE70000064A904239
:102E900034BF0648064811F0005F064A01EA020105
:102EA00014BFC1608160704710640240006002403E
:102EB000006402407D0F7D0F0029016814BF41F0BE
:102EC000010121F0010101607047000010B5174CAD
:102ED00090B0204600F032F84FF0006000901448A7
:102EE000019014480021CDE9020140F23240CDE9C1
:102EF00004012015CDE906018010CDE9081040023B
:102F0000CDE90A010120CDE90C010E916946204668
:102F100000F0FCF801212046FFF7CEFF01224021FE
:102F2000054803F0D4F910B010BD000088600240DD
:102F300004440040C1090020004400402DE9F00392
:102F4000016821F0010101600021016041608160A0
:102F5000C160016121214161434A3D2443499042BE
:102F600002BF8C60BDE8F0037047414A4FF47465BE
:102F7000904202BF8D60BDE8F00370473D4A4FF4B8
:102F80007418904202BFC1F80880BDE8F003704792
:102F9000394A4FF07466904202BF8E60BDE8F0037C
:102FA0007047364B364A984202BFCA60BDE8F0030C
:102FB0007047DFF8D0C0344B604502BFCB60BDE83E
:102FC000F0037047314FDFF8C8C0B84202BFC1F804
:102FD0000CC0BDE8F0037047DFF8B8904FF03D57E4
:102FE000484502BFCF60BDE8F0037047DFF8A89006
:102FF0002A49484502BF0C60BDE8F0037047284CE1
:10300000A04202BF0D60BDE8F0037047254CA0420E
:1030100002BFC1F80080BDE8F0037047224CA04217
:1030200002BF0E60BDE8F0037047204C2049A0426B
:1030300002BF0A60BDE8F00370471E4A904202BF1B
:103040000B60BDE8F00370471B4A904202BFC1F815
:1030500000C0BDE8F0037047184A904208BF0F60F7
:10306000BDE8F003704700001060024000600240BD
:103070002860024040600240586002407060024098
:103080003D00002088600240400F0020A060024008
:1030900000003D20B8600240106402400864024015
:1030A0002864024040640240586402407064024058
:1030B0000C64024088640240A0640240B86402408C
:1030C00001460020096811F0010F18BF0120704768
:1030D000406880B2704700000246084B00209A42C8
:1030E00034BF074A074A11F0005F14BF52681268E4
:1030F000054B1A400A4218BF012070471064024075
:1031000000600240006402407D0F7D0F10B4026831
:103110001B4BD1F80CC01A400B6843EA0C03D1E9F1
:1031200005C44CEA040C43EA0C03D1F81CC043EA82
:103130000C03D1F820C043EA0C03D1F824C043EAC1
:103140000C03D1F828C043EA0C03D1F834C043EA99
:103150000C03D1F838C043EA0C031A4302604269F9
:10316000D1E90B3C22F0070243EA0C031A43426107
:103170000A6942604A6882608968C16010BC704711
:103180003F801CF00021016041608160C1600161ED
:1031900041618161C161016241628162C162016319
:1031A00041638163704770472DE9F041494C002528
:1031B0002046A17D01264078012902D0032959D05B
:1031C00019E0012817D1444FC7F8A052207D401CB8
:1031D000C0B22075152888BF2675217D132000F008
:1031E000DDF9052005F062FCC7F8A062132000F0AD
:1031F000B5F82075A575E08B4CF6CD414143374AB3
:10320000C90CA2FB01C3DB085B4203EB830301EBA8
:103210004301A2FB0032D208524202EB820200EBD1
:1032200042024AF2D73300FB033063782C4D4FEA59
:10323000905C89B292B205F10F00012B22D0022BD3
:1032400033D0032B18BFBDE8F081264B1B88E383E6
:1032500010F80C30445C855C1946682004F090FC42
:1032600021466A2004F08CFC2946BDE8F0416C2020
:1032700004F086BC401CC0B26070032888BF667032
:10328000A575B8E7237DE383EB78445C855C19463C
:10329000682004F075FC21466A2004F071FC294680
:1032A000BDE8F0416C2004F06BBCB4F89830E383C7
:1032B0002B79445C855C1946682004F061FC21464A
:1032C0006A2004F05DFC2946BDE8F0416C2004F062
:1032D00057BC00005001002000004042CDCCCCCCB7
:1032E000F001002056020020F0B583B00121022039
:1032F00001F0EAF901258DF80450002480208DF8B2
:1033000006400326134F00908DF805608DF80740A6
:103310006946384600F0C2FB8DF8045010208DF845
:10332000065000908DF805608DF8074069463846D4
:1033300000F0B4FB8DF8045028028DF80640009090
:103340008DF805608DF807406946034800F0A6FB3C
:1033500003B0F0BD00040240000002402DE9F0413E
:10336000044600F0A3F8002808BFBDE8F081A020C3
:1033700000F06EF800F0E6F8002851D0204600F08A
:1033800067F800F0DFF800F091F8A12000F060F895
:1033900000F0D8F8254E00241021304600F0DEFB66
:1033A000234F07256006040E8021304600F0D4FB31
:1033B000032005F089FB8021304600F0CFFB03207D
:1033C00005F082FB386810F0100F18BF44F00104BC
:1033D000691ECDB2E6D28021304600F0BDFB8021CF
:1033E000304600F0B9FB032005F06EFB102130469B
:1033F00000F0B4FB032005F067FB8021304600F0AD
:10340000ADFB032005F060FB8021304600F0A4FBFB
:10341000032005F059FB00F073F82046BDE8F08169
:1034200000F06EF80020BDE8F081000000040240CA
:103430001004024070B50446401CC0B2FFF78EFF76
:1034400005462046FFF78AFF05EB002080B270BDDD
:1034500070B5154E054607248021304600F07CFBF0
:10346000032005F031FB15F0800F4FF010013046BE
:1034700002D000F073FB01E000F06EFB6806050E61
:10348000032005F021FB8021304600F067FB03207C
:1034900005F01AFB611ECCB2DED23046BDE87040AA
:1034A000802100F059BB00000004024070B5124DAD
:1034B0001021284600F052FB8021284600F04EFBE8
:1034C000032005F001FB0D4C20681021284600F078
:1034D00043FB032005F0F8FA206810F0100F1CBF22
:1034E000002070BD1021284600F036FB032005F0B7
:1034F000EBFA012070BD00000004024010040240FD
:1035000010B50F4C8021204600F026FB032005F06B
:10351000DBFA1021204600F01FFB032005F0D4FA4F
:103520008021204600F01AFB032005F0CDFA10217F
:10353000204600F013FBBDE81040032005F0C4BA9C
:103540000004024010B5134C8021204600F004FB1B
:10355000032005F0B9FA1021204600F0FFFA0320FD
:1035600005F0B2FA8021204600F0F8FA032005F0B9
:10357000ABFA094800684FF0800110F0100F2046A8
:1035800003D000F0E9FA002010BD00F0E5FA0120B8
:1035900010BD0000000402401004024070B50C464B
:1035A0000546FFF783FF002808BF70BDA020FFF786
:1035B0004FFFFFF7C7FF68B12846FFF749FFFFF746
:1035C000C1FF2046FFF744FFFFF7BCFFFFF798FF5E
:1035D000012070BDFFF794FF002070BD2DE9F04180
:1035E0000446401C0D46C7B2CEB2FFF75FFF88B15C
:1035F000A020FFF72DFFFFF7A5FF38B33846FFF7F0
:1036000027FFFFF79FFF3046FFF722FFFFF79AFFE4
:10361000FFF776FF052005F049FA2D0AFFF746FF70
:1036200088B1A020FFF714FFFFF78CFF88B1204678
:10363000FFF70EFFFFF786FF2846FFF709FFFFF7AA
:1036400081FFFFF75DFF0120BDE8F081FFF758FF24
:10365000E0E7FFF755FFF6E710B5012000F0ECF8C2
:10366000002808BF10BD012000F098F8BDE8104008
:10367000012000F099B8000010B50A2005F016FAF4
:103680001748D0F8300228BB16480068012804D03B
:1036900002280CD0032814D01CE01348F5EE000AD1
:1036A00090ED000A30EE200A80ED000A12E00F488B
:1036B000F6EE000A90ED000A30EE200A80ED000AD6
:1036C00008E00B48DFED0B0A90ED000A30EE200A0F
:1036D00080ED000ABDE810404FF4805000F064B85F
:1036E00000804142040000200C0000201000002057
:1036F00008000020CDCC4C3D10B5022000F09CF815
:10370000002808BF10BD04480168491C0160BDE8DD
:103710001040022000F048B8A001002010B504209D
:1037200000F08AF8002808BF10BD042000F036F829
:10373000BDE81040042000F037B810B5082000F0B4
:103740007BF8002808BF10BD082000F027F8BDE86E
:103750001040082000F028B810B5102000F06CF8D8
:10376000002808BF10BD102000F018F8BDE8104078
:10377000102000F019B8000010B5402000F05CF8EF
:10378000002808BF10BD04480168491C0160BDE85D
:103790001040402000F008B89C010020014908605A
:1037A00070470000143C0140014908607047000068
:1037B000143C014070B5012184B0880300F084FFFF
:1037C0000621002001F0DFF8002540208DF804508C
:1037D000102600908DF8056001248DF8064068469B
:1037E00000F034F80121002001F0CDF802208DF81E
:1037F000045000908DF805608DF80640684600F092
:1038000025F817208DF8080004258DF809508DF84B
:103810000A508DF80B4002A800F006FE07208DF834
:1038200008008DF809508DF80A508DF80B4002A859
:1038300000F0FAFD04B070BD034A01460020126892
:103840000A4218BF01207047143C01408379214986
:103850000268002B34D00B6823EA02020A60091DBB
:103860000A6803689A430A60017901F1804101F511
:103870009E310A6803681A430A60174B1968026888
:10388000914319601A1D1168D0F800C021EA0C019B
:1038900011604179102908D001F1804101F59E3174
:1038A0000A6800681043086070471968D0F800C0C3
:1038B00041EA0C0119601168006808431060704704
:1038C000007900F1804000F59E300168914301606D
:1038D00070470000003C0140083C0140014908607D
:1038E000704700000C3C024004490028086814BFDF
:1038F00040F4806020F4806008607047003C024023
:103900000248016841F4805101607047003C024068
:1039100030B50546002451B1012908BF4FF4807429
:1039200005D002290CBF4FF400744FF4407400F02E
:1039300061F8092818BF30BD0F4B186820F440709B
:103940001860186820431860186820F0F8001860A4
:10395000186845F0020108431860186840F4803088
:10396000186000F047F8196821F002011960196821
:1039700021F0F801196030BD103C02400248016896
:1039800041F0004101607047103C024030B50C46E8
:10399000054600F02FF8092818BF30BD0A4B1868FB
:1039A00020F440701860186840F4007018601868BF
:1039B00040F0010018602C6000F01CF8196821F03C
:1039C0000101196030BD0000103C0240054800684C
:1039D00010F0004F08BF70470349044801600449D4
:1039E00001607047103C024023016745043C0240DF
:1039F000AB89EFCD81B009208DF800000146264843
:103A0000026812F4803F18BF012116D1026812F03B
:103A1000100F18BF062110D1026812F4807F18BF62
:103A200002210AD1026812F0EF0F18BF072104D15A
:103A3000026812F0020F18BF08218DF800109DF8DF
:103A40000010012923D10268092112F4803F18BF18
:103A5000012116D1026812F0100F18BF062110D1F3
:103A6000026812F4807F18BF02210AD1026812F0A6
:103A7000EF0F18BF072104D1026812F0020F18BF20
:103A800008218DF800109DF800100129DBD09DF869
:103A9000000001B0704700000C3C02402DE9F0012D
:103AA000002201255FF00306D1F800C005FA02F3F9
:103AB0000CEA030C9C4537D107684FEA420C06FA22
:103AC0000CF4A74307600F79D0F8008007FA0CF7D1
:103AD00047EA080707600F79012F18BF022F17D197
:103AE000876827EA040787604F79D0F8088007FACB
:103AF0000CF747EA08078760476827EA0303436033
:103B000043688F7907FA02F7BFB243EA07034360BD
:103B1000C36823EA0403C360CB7903FA0CF3D0F83B
:103B20000CC043EA0C03C36002F10102102ABBD3AC
:103B3000BDE8F00170474B07DB0E9A40C90800EB67
:103B40008100016A4FF00F0C0CFA03F399430162F4
:103B5000016A1143016270474183704701837047D6
:103B60004FF6FF7101600021017141718171C171D6
:103B70007047000030B40D4D002228462988B5F862
:103B800002C0042330F8044F6144B0F802C022445C
:103B90005B1EF7D18818698A08440549A1FB00100B
:103BA0000449C008086030BC70470000940F002032
:103BB000CDCCCCCCD80100200348006810F0010F18
:103BC00000D000BEFEE70000F0ED00E000000000C5
:103BD0002DE9F0474C4D4FF0FE080E4685F8008069
:103BE0006870A970494907460A2008604849B2EE42
:103BF000060A484A81ED000A0C211160464AF0EE9F
:103C0000000A002492F8009085F8039000222A719F
:103C10006871424890ED000A20EE200ABCEEC00A0E
:103C200010EE100AA8710B20E8713D4802782A7244
:103C3000407868723B483D4A0078A8720120E872DB
:103C4000394800782873A5F1AA001368C0F8B73086
:103C50005368C0F8BB309368C0F8BF30D368C0F871
:103C6000C3301369C0F8C730127D80F8CB203048CC
:103C700090ED000ABCEEC00A10EE100A85F8220092
:103C80002C4890ED000ABCEEC00A10EE100A85F830
:103C90002300294885F82410806AFCF747FF9FED30
:103CA000281B53EC112BFCF73AFEFCF726FF85F896
:103CB00025002548007885F82600701E002812DDB2
:103CC000A91C16F0010F04BF4C46491C4B7842104A
:103CD00009D000BF11F802CF84EA03004B7880EAD4
:103CE0000C04521EF6D1701E02D42844C078444001
:103CF000A819721DC47080F804803946BDE8F047E9
:103D0000014800F01FB900006B0E0020E001002008
:103D1000B8010020E801002064010020D401002047
:103D20003C02002063010020280200206A090020D4
:103D3000BC010020C0010020680700200000000036
:103D4000B81E85EB51B89E3F880100202DE9F04F49
:103D500083B00121082000F09FFC0121072000F022
:103D60009BFC0121480500F097FC00248DF80440DD
:103D7000032504278DF80550012600978DF807606C
:103D800069466948FFF78AFE8DF80440DFF89CB168
:103D90004FF008088DF80550CDF800808DF80760C9
:103DA00069465846FFF77AFE8DF804404FF4805973
:103DB0008DF80550CDF800908DF8076069465C4895
:103DC000FFF76CFE8DF804404FF4004A8DF8055063
:103DD000CDF800A08DF8076069465648FFF75EFEF3
:103DE000B0038DF8044000908DF805508DF8076001
:103DF00069464F48FFF752FE70038DF8044000906B
:103E00008DF805508DF8076069464948FFF746FE72
:103E10008DF804408DF8055000968DF807606946CE
:103E20004348FFF73BFE8DF804408DF80550CDF870
:103E300000A08DF8076069463D48FFF72FFE8DF81A
:103E400004408DF80550CDF800808DF80740694694
:103E50003748FFF723FE8DF804408DF80550009792
:103E60008DF8074069463248FFF718FE8DF8044088
:103E70008DF80550CDF800908DF8074069465846FA
:103E8000FFF70CFE8DF804408DF8055000968DF874
:103E9000074069462748FFF701FE8DF80460F002ED
:103EA0008DF8064000908DF8055002278DF80770B8
:103EB00069462048FFF7F2FD8DF804608DF8064052
:103EC0004FF020088DF80550CDF800808DF8077070
:103ED00069461848FFF7E2FD8DF8046010208DF860
:103EE000064000908DF805508DF80770694610481F
:103EF000FFF7D4FD8DF804608DF806408DF805506D
:103F0000CDF800808DF8077069460948FFF7C6FDB7
:103F10000948C0F894420A489FED080A80ED080A53
:103F200003B0BDE8F08F0000000C02400004024026
:103F30000008024000000240000040420000000073
:103F40003C0200202DE9F0411F4B962A1A7284BFD3
:103F50000020BDE8F081BAB1411E1C4812F0010FEB
:103F600003D011F801CF00F801CFC2F347025AB1D4
:103F700091F801C080F801C011F802CF521E00F87C
:103F800002CF12F0FF02F3D11E7A114D0024002E51
:103F900084BF104FDFF8408013D93988384611F0BC
:103FA000400FFAD0295D02F079FB4046018811F0FC
:103FB000400FFBD0295D02F071FB601CC4B2A64229
:103FC000EBD80120BDE8F0813C020020FD0E00206E
:103FD000FE0E002000440040004C004070B4284811
:103FE000D0F83062274801230225828B03244FF446
:103FF000FA6C00211EB10678012E04D018E0521C84
:104000008283037014E0D61EB6F5F97F38BF83753E
:104010000CD3A2F2F516B6F57A7F38BF857505D3B5
:10402000B2F5FA6F24BF8475A0F81CC081830170BB
:10403000154AD2F80062134A128CDEB18678012E3E
:104040001CBF70BC7047D61EB6F5F97F38BFC3756C
:104050000CD3A2F2F513B3F57A7F38BFC57505D33B
:10406000B2F5FA6F24BFC475A0F820C00184817036
:1040700070BC7047511C0184837070BC7047000095
:104080000080404250010020000040422DE9F05FD6
:104090008548D0F83CE2854C854D0226D4E91921AB
:1040A00002F1010B627C2079521CD7B2227C401CA9
:1040B000521C02F0FF0995F8008094F812A0002528
:1040C000D4F890C0D4F89C30226EC0B2BEF1000F7C
:1040D00006D1DFF8E0E1DEF830E2BEF1000F08D0F3
:1040E000DFF8D0E1DEF83CE2BEF1000F40F0B7802F
:1040F00052E04FF0010E84F805E0DFF8BCE12071DA
:10410000714506DBB8F1060F14BFB8F1010FC4F812
:1041100064B001280AD0142824BF14202071606ED6
:10412000C8287DD36774012F1AD10FE0581CC4F83A
:104130009C0090422CBFC4F89800C4F89820656693
:10414000D4F8980050456BD1A56588E084F81090AC
:104150005A48C4F858C0C4F898500580C4F8905024
:104160000120E07360735648542105705548656717
:10417000FCF7A1F8022F88BF6674207C022888BF54
:1041800026744B48B8F1060F60D0B8F1010F04BF98
:10419000217C022960D062E0DFF818E1DEF800E25D
:1041A000BEF1000F5BD14FF0010E84F806E0DFF89E
:1041B00008E12071714506DBB8F1060F14BFB8F1B4
:1041C000010FC4F864B001280AD0142824BF1420B9
:1041D0002071606EC82842D36774012F18D10DE09A
:1041E000501C206683422CBFC4F89830C4F8980055
:1041F0006566D4F89800504531D1A5E784F8109051
:104200002E48C4F858C0C4F898500580C4F890509F
:104210000120E07360732A4854210570294800E0AA
:104220001DE06567FCF747F8022F88BF6674207CA5
:10423000022888BF26741E48B8F1060F06D0B8F1D0
:10424000010F04BF217C022906D008E04FF00301D2
:1042500001701D48067002E006701B480670124887
:10426000D0F83C0201280ED11248D0F830120129B2
:1042700001BFD0F83C120129D0F80002012802D178
:10428000657125716574D4F89800002804BFC4F8DE
:104290009C502566D4F89000002804BFC4F89450C0
:1042A000E565BDE8F09F000000004042500100209D
:1042B0003D02002000004142000020415602002043
:1042C00040020020980800203E020020FEE7000087
:1042D00070B50A48FDF77DF8094D0A4C294620467D
:1042E000FEF7FAFE0028F9D029462046FEF7CEFD5B
:1042F00001212046FEF7E0FD034870BD002001408B
:104300002000001010640240A00200202DE9F043BC
:104310009DB00121042000F0BFF91AA8FFF720FC8E
:1043200003208DF86C0000248DF86E4002258DF876
:104330006F401A958DF86D501AA93548FFF7AEFBFE
:104340000121080200F0C0F916A8FCF7B7FF4FF4EE
:104350004070EE03CDE91840CDE9164616A8FCF7EB
:1043600097FF10A8FDF73AF88DF8454001208DF829
:1043700044004FF0C060CDE91240264F10941494D1
:104380008DF8545010A93846FCF7B0FF03230122E2
:104390000B213846FCF7D4FF01213846FCF794FF87
:1043A00001213846FCF799FF0121DFF86C90DFF816
:1043B0006C80880500F070F96846FEF7E3FE28037C
:1043C0000890C0100690CDE90049CDF80880400063
:1043D000079005940D940E94CDE9034504200A96A8
:1043E0000994CDE90B040E4C2046FEF769FE012826
:1043F000FAD069462046FEF789FE01212046FEF7E5
:104400005BFD01213846FCF73AFF1DB0BDE8F083A3
:1044100000080240002001404C200140A002002082
:10442000106402407047000010B4C27801780F2475
:104430004FF0010C0AB3174A126801F1E02102F4AF
:10444000E062C2F5E062C2F30722C2F10403D44085
:1044500042789A40837823401A43120181F800245D
:10446000007800F01F010CFA01F14009800000F112
:10447000E020C0F8001110BC704701F01F000CFADA
:1044800000F04909890001F1E021C1F8800110BC68
:10449000704700000CED00E0034940F0FD7040F073
:1044A00080600860704700000CED00E0014802F0F9
:1044B00045BA0000E81800202DE9F041884607467B
:1044C000164600241421082004F0C0F8054606EB27
:1044D00048102860122068600021297269722946FC
:1044E0003846FEF78FF8804601463846FEF7FEF85C
:1044F000002808BF40F6FF7609D1601C84B2B442A0
:1045000005D241463846FEF7F1F80028F5D0284696
:10451000BDE8F0411422082104F0B2B83749384A06
:104520009FED391AD1ED000AC2ED000AD1ED010A62
:10453000C2ED010AD1ED020AC2ED020A314A127837
:104540004AB9B0EE410A81ED440A81ED470A81ED96
:10455000460A81ED450A2D4A2D4BD2ED000A30EE78
:10456000600A81ED440AD1ED470A70EE800A10EE30
:10457000902AC1ED470A9A422DDC00BF10EE902A26
:10458000244B9A422CD800BFD0ED000AD0ED011A7E
:1045900091ED472A60EE800A1F4A41EE820A91EDB2
:1045A000462AD0ED021A30EE422A41EE820A10EE7F
:1045B000900AC1ED450A81ED460A9042D8BFB0EE9F
:1045C000600A12DCB5EEC00AF1EE10FA12D300BF99
:1045D00091ED450A7047DFED110AC1ED470ACDE7BD
:1045E000DFED0F0AC1ED470ACEE79FED0E0A81ED20
:1045F000450AE7E781ED451AEAE700001C000020C4
:10460000680700205E01002000000000B8010020C3
:1046100000C0DA4500C0DAC50000FA4500C0DA453E
:1046200000C0DAC50000FA4510B5134CD4F8880074
:10463000FCF756FA9FED121B53EC112BFCF76FF9A8
:104640009FED111B53EC112BFCF769F99FED101B2B
:1046500053EC112BFCF763F9FCF794FA00EE100A07
:10466000F2EE040A84ED210A20EE200ABCEEC00A14
:1046700010EE100AE08610BD50010020000000007E
:104680006666666666660A40000000000000334009
:10469000000000000000303F044A0029116814BFE8
:1046A000084321EA000010607047000030380240E3
:1046B000044A0029116814BF084321EA0000106071
:1046C0007047000040380240044A0029116814BFB6
:1046D000084321EA0000106070470000443802409F
:1046E000254A30B41168254B11F00C0106D05C103E
:1046F000042908BF046002D008291ED00360116895
:104700000F2303EA11111E4B595CD0F800C02CFA9C
:1047100001F14160D2F800C0072404EA9C2C13F890
:104720000CC021FA0CFCC0F808C0126804EA52322E
:104730009A5CD140C16030BC70471249D1F800C0CA
:10474000CCF38055D1F800C0002D0CF03F0C14BF05
:10475000B4FBFCF3B3FBFCF3D1F800C00968CCF365
:10476000881C03FB0CF3C1F30141491C4900B3FB56
:10477000F1F10160C3E70000083802400024F400B2
:10478000D40300200438024070B50C46054600F002
:1047900073F82649FE2226480A704D708C70007806
:1047A000C87024480088030A0B71487122480088A9
:1047B000030A8B71C87121481123007808722048C0
:1047C000007848721F48007888721F480078C872C5
:1047D0001E48007808731E48007848731D4800780A
:1047E00088731D480078C8731C48007808741C48FA
:1047F00000784874012088741A480078C8741A48F0
:104800000078087519480078487519480078887547
:1048100018480078C87508192946C3700271621DCE
:10482000BDE870400148FFF78DBB0000C50E0020B9
:10483000640100202602002034020020280200200B
:1048400062010020630100202C02002029020020C8
:104850002A0200202B0200202D0200202E02002020
:104860002F020020300200203102002032020020FE
:10487000360200203702002070B50020FEF7DAFD76
:104880002D4908800220FEF769FD2C492C4C2D4D46
:1048900008702078012816BF03200C20FEF75EFD6B
:1048A00028700420FEF75AFD274908700520FEF7FE
:1048B00055FD264908700620FEF750FD2449087072
:1048C0000720FEF74BFD234908700820FEF746FD40
:1048D000214908700920FEF741FD204908700A208F
:1048E000FEF73CFD1E4908700B20FEF737FD1D4901
:1048F00008700C20FEF732FD1B4908700D20FEF7F2
:104900002DFD1A4908700E20FEF728FD1849087081
:104910000F20FEF78FFD174908801120FEF71EFDBE
:10492000154908701220FEF719FD1449087013206C
:10493000FEF714FD207070BD2602002062010020E9
:1049400064010020280200206301002029020020C9
:104950002A0200202B0200202C0200202D02002021
:104960002E0200202F020020300200203102002001
:1049700032020020340200203602002037020020DC
:104980007047704770478A0721F0030101F18041A9
:1049900001F59831120F0F23D1F808C893402CEA83
:1049A0000303C1F80838D1F8083890401843C1F81B
:1049B00008087047DFF834C0009912F0FF0FCCF8F8
:1049C00054000FD10CF1A700120E027043701A0AA6
:1049D00082701A0CC2701A0E027141710A0A827139
:1049E000090CC17101208CF80300704750010020B0
:1049F0002DE9F047854D844FDFF8149229784FF068
:104A000000087854491C2970AA68A7F59661885453
:104A1000501CA860B0F5C87F05DA084410F8010CF6
:104A20000A2840F0B78002227AA17C48FBF74EFCAE
:104A30007B4C012670B904F148027AA17748FBF754
:104A400055FCA06C00EE100AB1EE400A10EE100A00
:104A5000E0646E71022275A17048FBF737FC28B93B
:104A600004F1380273A16D48FBF740FC042273A1E6
:104A70006A48FBF72BFC4FF01B0A40B984F830A0C2
:104A8000052084F8340084F86E6084F8686004229D
:104A90006CA16248FBF71AFC40B984F830A00320EF
:104AA00084F8340084F86E6084F86860042267A19A
:104AB0005A48FBF70BFC002804BF84F830A084F8A8
:104AC0006860092263A15548FBF700FC38B9544AD5
:104AD00063A15248FBF70AFC206860606E710922EE
:104AE00063A14E48FBF7F2FB40B904F1100263A149
:104AF0004A48FBF7FBFB206960616E71142263A1D9
:104B00004648FBF7E3FB40B904F1200265A14348A6
:104B1000FBF7ECFB206A60626E71042267A13F48DC
:104B2000FBF7D4FB38B9674C67A1A21C3B48FBF7E5
:104B3000DDFB84F80080042265A13848FBF7C6FB42
:104B4000654C38B9C4F8098009F1020263A1334801
:104B5000FBF7CCFB042263A13048FBF7B7FB30B96D
:104B6000C4F80960614A62A12C48FBF7BFFB02222E
:104B700061A12A48FBF7AAFB28B904F1090260A148
:104B80002648FBF7B3FB4FF4C8712448FBF793FBAF
:104B9000C5F808803878FC281FBF7878052885F884
:104BA0000080BDE8F0872878042838BFBDE8F0878A
:104BB000F878B97841EA002000B241F27B4110FB5D
:104BC00001F1CA14A2EBE17100EE101A4E4981FB0B
:104BD00000214A11A2EBE1716FF01802514300EB82
:104BE000810000EE900AB8EEC00AF8EEE00A9FEDF0
:104BF000471A00EE810A10EE100AC9F8020085F883
:104C00000080BDE8F08700008C230020C003002056
:104C100042010020563D0A2000000000DC1E00205A
:104C2000C8040020563D25660A000000503D0A20B9
:104C300000000000503D25660A000000506F730A16
:104C40002000000056656C0A200000005365740ABD
:104C500020000000506F735F6761696E3D0A20009D
:104C6000506F735F6761696E3D25660A0000000042
:104C700056656C5F6761696E3D0A200056656C5F22
:104C80006761696E3D25660A0000000056656C5F2D
:104C9000696E7465677261746F725F6761696E3D9A
:104CA0000A20000056656C5F696E746567726174F6
:104CB0006F725F6761696E3D25660A004F59593D05
:104CC0000A2000003C0100204F59593D25660A008A
:104CD0004D4F413D0A200000B00700204D4F413D9F
:104CE00025660A004D4F423D0A2000004A0100207F
:104CF0004D4F423D25660A00463D0A200000000057
:104D0000463D25640A0000001F85EB510AD7233C6D
:104D100010B5012080F31188BFF34F8FBFF36F8F61
:104D200005F0D6FD18B104494FF08050086000200E
:104D300080F3118810BD000004ED00E0374882B018
:104D4000016841F4700101603548016841F00101DA
:104D50000160344900230B60026822F4102222F023
:104D60008072026000F1040C2F4ACCF80020026827
:104D700022F4802202600A1D1360019300930268EE
:104D800042F480320260026802F400320092019A1A
:104D9000521C0192009A1AB9019AB2F5A04FF2D1B1
:104DA000026812F4003F08BF009331D00122009244
:104DB0001E4A136843F0805313601D4A136843F47E
:104DC000404313600A680A600A6842F400420A60BD
:104DD0000A6842F4A0520A60164ACCF80020026821
:104DE00042F080720260026812F0007FFBD0124A2B
:104DF00040F205601060086820F003000860086851
:104E000040F002000860086800F00C000828FAD1A1
:104E10000A494FF00060086002B0704788ED00E07A
:104E20000038024008380240103000244038024068
:104E300000700040085A4007003C024008ED00E0C6
:104E40002DE9F0410E46074601218AB00802FFF71E
:104E50002FFCDFF87480092207214046FEF76BFE25
:104E60008020009002208DF8040000248DF8064078
:104E700003208DF8050001258DF80750694640464E
:104E8000FEF70CFEADF80860104E0397ADF8104029
:104E9000ADF80A4002A9304600F06EFA7020ADF875
:104EA0001400ADF81650ADF8204005A9304600F0CA
:104EB000C8F90821304600F0F8F90121304600F029
:104EC0009BF90AB0BDE8F0810000024000200040DC
:104ED0007047704710B5094C0121204600F09EF93B
:104EE000002808BF10BD0121204600F082F92046AD
:104EF000BDE81040012100F079B900000000014038
:104F00002DE9F0470121880700F081F9012840F0E0
:104F1000F5807D4C7D497E4FA06E884208DB387855
:104F2000062818BF012803D1608C00F101006084BD
:104F3000A08C4FF0000500F10100A084E08C00F18E
:104F40000100E084208D00F101002085A08E00F199
:104F50000100A086608D00F1010080B26085B0F58F
:104F6000487F28BFC4F88C50A08D401C80B2A0851B
:104F7000B0F57A7F28BFA572664AD2F80C02664B5C
:104F80001421002804BFD3F80802002809D1E08DBD
:104F900000F1010080B2E085012814D0142828BF58
:104FA000E185D2F80C02012802BFD3F808020128DB
:104FB000E5855A4ED6F83802002804BFD6F83402E8
:104FC000002814D106E0D4F8940000F10100C4F8E0
:104FD0009400E6E7208E00F1010080B220860128CF
:104FE00004BF0220208602D0142828BF2186D6F8CC
:104FF0003802012802BFD6F8340201282586E16D67
:10500000D4F8940088422EBFC4F89000C4F89010E1
:10501000084600F0010101EB500041490880FFF70C
:1050200035F8208DDFF8FC90DFF8FC8064283ED353
:105030002585E079D8BB94ED130ADFED3C0AB8EE84
:10504000400A20EE200A84ED1B0AE56494ED141A50
:10505000B8EE411A61EE200AC4ED1C0AB4EEE00A73
:105060002565F1EE10FACCBF84ED1A0AC4ED1A0AD8
:1050700099ED000A2E48FFF751FA10EE100A2C495C
:1050800000EE100A8862227BBCEEC00A10EE100A05
:1050900081B2D8F89402E272C0B2C8F89402C6F89D
:1050A0009022D043C6F89402224800F004F999ED0A
:1050B000000A0121B5EEC00AF1EE10FA07BFC8F8E8
:1050C0009452A573C8F89412A173D6F80C0248B193
:1050D0003878012810D1608E401C80B26086B0F50F
:1050E0007A7F02D8C8F8AC1208E0A0F2E930B0F537
:1050F0007A7F28BF658601D2C8F8AC52BDE8F04778
:105100000121880700F072B8500100200000204102
:105110003D020020008040420080414200004142A8
:10512000560200205C02002000004042BE9F6A4000
:10513000680700200020004070B5204E0221304654
:1051400000F06CF800251E4C012817D001213046D4
:1051500000F064F8012818BF70BD208B401C80B29D
:105160002083052804D3258378211648FBF7A3F86C
:105170003046BDE87040012100F03BB8E06B206490
:10518000304600F042F8E063218B05290FD2C1EBD5
:1051900001410844216C0B4A401A6064618B42F85B
:1051A0002100481C80B260831E2828BF65832583A8
:1051B0003046BDE87040022100F01BB800040040FA
:1051C000500100200C08002003480188018821F0CC
:1051D0000101018070470000100C004004210148CB
:1051E00000F01CB80014004070477047C9430182AA
:1051F0007047C943018270470029018814BF41F0FC
:10520000010121F0010101807047406A70470246A8
:105210000020128A0A4218BF01207047038A002228
:1052200080890B4200EA01001CBF002801221046C1
:105230007047002A828914BF114322EA010181814B
:10524000704710B4028C22F001020284038C828821
:10525000B0F818C00C882CF0730C44EA0C0C8C8944
:1052600023F0020323434C882343A0F18044B4F588
:1052700080341CBFA0F18044B4F582340DD1CC89B8
:1052800023F0080323438C8823F0040323430C8A70
:1052900022F4407222434C8A22438280A0F818C034
:1052A00089684163038410BC7047028B22F00802B6
:1052B000114301837047416370470146B0F1804F4D
:1052C00004BF1C207047A1F18042B2F5806204BF88
:1052D0001D207047A1F18042B2F5006204BF1E207C
:1052E0007047A1F18042B2F5406204BF322070479E
:1052F000A1F18042B2F5805204BF36207047A1F17F
:105300008042B2F5A05204BF37207047A1F180421D
:10531000B2F5A03204BF18207047A1F18042B2F567
:10532000A23226D0A1F18042B2F5A43204BF1A20E5
:105330007047A1F18042B2F5C05204BF2B207047E4
:10534000A1F18042B2F5E05211D0A1F18042B2F554
:10535000005204BF2D207047A1F18042B2F5803287
:1053600007D0A0F18042B2F5823218BF70472C20DE
:10537000704719207047000010B402881C4BDFF8FA
:1053800074C0984218BF604511D0B0F1804F1CBF67
:10539000A0F18044B4F5806409D0A0F18044B4F554
:1053A00000641CBFA0F18044B4F5406403D14C8874
:1053B00022F070022243A0F18044B4F580541CBF57
:1053C000A0F18044B4F5A05403D00C8922F44072BB
:1053D000224302804A68C2620A880285984212BF4C
:1053E0006045897A01864FF00101818210BC7047C7
:1053F00000000140000401402DE9F04182B001218C
:105400000820FFF749F901210720FFF745F901249A
:105410008DF8044000268DF806600327DFF83480FD
:105420008DF80570022500948DF8075069464046B6
:10543000FEF734FB8DF804408DF806608DF805709A
:1054400000958DF8075069464046FEF727FB02B0ED
:10545000BDE8F0810004024070B5194E05460024F5
:1054600002213046FEF778FB15F0800F4FF0010166
:10547000304602D0FEF772FB01E0FEF76DFB022121
:105480003046FEF76BFB02213046FEF765FB6806EF
:10549000050E02213046FEF75FFB601CC4B2082CEB
:1054A000DED301213046FEF757FB02213046FEF7DE
:1054B00055FB3046BDE870400221FEF74DBB0000B1
:1054C0000004024010B52E4C02212046FEF746FB98
:1054D00001212046FEF742FB02212046FEF73EFB5B
:1054E00001212046FEF73AFB01212046FEF734FB5E
:1054F00002212046FEF730FB4420FFF7ADFF0121DB
:105500002046FEF729FB02212046FEF727FB01215A
:105510002046FEF723FB02212046FEF71FFB012158
:105520002046FEF71BFB01212046FEF715FB02215A
:105530002046FEF711FB8F20FFF78EFF012120464A
:10554000FEF70AFB02212046FEF708FB0121204658
:10555000FEF704FB3121482002F012FB31214820E4
:1055600002F00EFB0021682002F00AFB00216A20F5
:1055700002F006FB0021BDE810406C2002F000BBE9
:10558000000402402DE9F05FFE4F01260025387827
:10559000FD280ED0FC2818BFBDE8F09FB7F8030027
:1055A000F94940BA0880F9480670F9480580BDE815
:1055B000F09F7878F74CA12804BF6078002840F06D
:1055C000C380E562F978E16207F103004FF00A0158
:1055D000427894F82C30491E82EA0302D2B2E26289
:1055E00010F8023F83EA0202E262F1D1208B3844D4
:1055F00010F8020C90427DD1E748C0F8A05201207B
:1056000003F054FAB88841BAE44801800020FDF75D
:10561000E5FF052003F04AFAE148797A017002209B
:10562000FDF7BCFF052003F041FADE48397A01702E
:105630000320FDF7B3FF052003F038FADA48B97A02
:1056400001700420FDF7AAFF052003F02FFAD748C8
:10565000397B01700520FDF7A1FF052003F026FA34
:10566000D348797B01700620FDF798FF052003F0F1
:105670001DFAD048B97B01700720FDF78FFF052088
:1056800003F014FACC48F97A01700820FDF786FF80
:10569000052003F00BFAC948F97B01700920FDF7DA
:1056A0007DFF052003F002FAC548397C01700A200D
:1056B000FDF774FF052003F0F9F9C248797C017009
:1056C0000B20FDF76BFF052003F0F0F9BE48F97CD5
:1056D00001700C20FDF762FF052003F0E7F9BB48DD
:1056E000397D01700D20FDF759FF052003F0DEF92B
:1056F000797D00E028E0B64801700E20FDF74EFFEE
:10570000052003F0D3F9F88841BAB24801800F2090
:10571000FDF764FF052003F0C9F9AF48B97D0170BA
:105720001120FDF73BFF052003F0C0F9AB48F97DE0
:1057300001701220FDF732FF052003F0B7F9A848E9
:1057400006709548C0F8A0628E48A74FC178A5485A
:1057500090F80090494572D19348007801286ED1A5
:10576000607801286BD0DFF81CC29CF80100052886
:1057700065D1208B0CEB000313F8010CDF285ED100
:1057800061620CF1030015214278D4F82480491E8F
:1057900082EA0802626210F8028F11F0FF0188EAC3
:1057A00002026262F0D12B20207594F8240060621E
:1057B00013F8021C81426DD1DFF8E0818B4B0CF1B4
:1057C0000401B8F800808A4A00204FF0150CA8F1B7
:1057D000010B00BF13F801ABBAF1000F52D1B1F8C1
:1057E00000A09AFA9AFEBEF1000F1CBF9AFA9AFE28
:1057F000C64525D2DFF8FCA106FA00FE8AF8006053
:1058000097F800A02AF0030A4AF0010A87F800A0DE
:10581000DFF8E4A1DAF800A04EEA0A0EDFF8D8A11A
:10582000CAF800E000F1010A91F800E04FEA0A4AE4
:105830004AEA0E2A91F801E04AEA0E0A20E029E03D
:105840009AFA9AFAD0451DD2DFF8A8A106FA00FE0E
:105850008AF8006097F800A02AF0030A4AF0010ACB
:1058600087F800A0DFF890A1DAF800A04EEA0A0E4F
:10587000DFF884A1CAF800E000F1010A4BEA0A4A05
:10588000C2F800A0401C891C121DACF1010C1CF0D8
:10589000FF0C9FD13B4A1078FD2818BFBDE8F09F50
:1058A000D078564B48450CD1517801291FD0022998
:1058B0005ED004295DD00B295CD00C295BD00D296A
:1058C0005AD05178DFF838C14E4FDFF83C810329B8
:1058D00053D0002952D0062951D00A2950D0A229EC
:1058E0000CBF4A48BDE8F09F0670BDE8F09F2E4906
:1058F0000978002918BFBDE8F09F65751179444B00
:10590000CB5C002B18BFBDE8F09F4840537992F85C
:1059100006C058408CEA0000A062248B224412F892
:10592000022C824218BFBDE8F09F080440EA032021
:105930002F4A40EA0C0002EB8102030442F8040CF7
:105940001B0C6AD083B215480088834262D2A1F151
:10595000010006FA00F12848026841EA02010160EC
:10596000387820F0030040F001003870BDE8F09F67
:105970006AE084E08CE09CE0A2E0A7E0BAE0BFE04F
:10598000CBE04AE0C1090020180200205A010020A3
:105990007C0100203C020020000040422602002042
:1059A000620100202802002063010020290200205B
:1059B0002A0200202B0200202C0200202D020020B1
:1059C0002E0200202F020020300200203102002091
:1059D000320200203402002036020020370200206C
:1059E0002102002064010020590100206A090020E2
:1059F0009808002010020020C40100201D02002091
:105A00001E020020600100205F0100202202002011
:105A10006909002098BFBDE8F09F42480088A0F1C6
:105A2000010040EA014042F8040CA1F1010006FA2D
:105A300000F13D48026841EA02010160387820F037
:105A4000030040F0010017E06078052809D11D70BF
:105A5000E67054213548FAF72EFC2A213448FAF72B
:105A60002AFC34480078012818BFBDE8F09F387838
:105A700020F00C0040F004003870BDE8F09F107971
:105A8000401E06FA00F12C48026811430160EEE75F
:105A90005079012807D0002818BFBDE8F09F107981
:105AA000A072042009E01079A07203206073BDE8A1
:105AB000F09F1079E072267305206073BDE8F09FB7
:105AC00090881E4940BA08801D480DE71D48A574FE
:105AD000E57405701C4806701C4866708CF8005010
