:020000040801F1
:10000000D049012061020108895D01088150010881
:100010000D5C0108E9190108B7B8010800000000EB
:10002000000000000000000000000000A101010825
:100030003743010800000000FD010108897701082D
:100040002DB901087B0201087B0201087B0201082F
:100050007B0201087B02010855480108F1480108AC
:100060001149010829490108414901087B02010899
:100070007B0201087B0201087B0201087B02010868
:100080007B0201087B0201087B020108551A010866
:10009000ED1901087B0201087B020108594901089A
:1000A0004B7901084D7901087B0201087B020108A8
:1000B00071790108C97C01087B0201087B020108F3
:1000C0007B0201087B0201087B020108D170010854
:1000D000D3700108ED9E0108A99F010811A0010835
:1000E0006D4801087B0201087B020108357F010889
:1000F000477F0108457F01087B0201087B02010858
:100100007B0201087B0201089D7D0108D570010872
:100110008D9E0108BD9E01087B0201087B0201083B
:100120007B0201087B0201087B0201087B020108B7
:100130007B0201087B0201087B020108291F0108DC
:10014000C91B01087B0201087B0201084167010805
:100150007B0201087B0201087B0201087B02010887
:100160007B0201087B0201087B0201087B02010877
:100170007B0201087B0201087B0201087B02010867
:100180007B0201087B020108DFF810D000F0A0FE1E
:10019000004800477DCD0108AFF30080D049012021
:1001A0002C4B19680868B0E8F04F80F30988BFF35A
:1001B0006F8F4FF0000080F311887047000000003F
:1001C00008480068006880F308884FF0000080F35A
:1001D000148862B661B6BFF34F8FBFF36F8F00DF35
:1001E00000BF00BF08ED00E0DFF80C00016841F43B
:1001F00070010160704700BF88ED00E0EFF30980F7
:10020000BFF36F8F134B1A681EF0100F08BF20ED5D
:10021000108A20E9F04F106009B44FF0010080F31C
:100220001188BFF34F8FBFF36F8F0EF061FB4FF05C
:10023000000080F3118809BC19680868B0E8F04F25
:100240001EF0100F08BFB0EC108A80F30988BFF3CE
:100250006F8F70470C050020EFF30580704700009A
:100260000648804706480047FEE7FEE7FEE7FEE750
:10027000FEE7FEE7FEE7FEE7FEE7FEE7BD770108E3
:100280008901010840EA01039B0703D009E008C97E
:10029000121F08C0042AFAD203E011F8013B00F84B
:1002A000013B521EF9D27047D2B201E000F8012B97
:1002B000491EFBD270470022F6E710B513460A46E6
:1002C00004461946FFF7F0FF204610BD30B505463D
:1002D0000020034600E05B1C934205D2EC5CC85C46
:1002E000201A01D1002CF6D130BD00000FB400B5AA
:1002F0008DB010A909900B9000914FF0FF300A903B
:1003000000200C9005480690054807906A4609A809
:100310000F9900F0F7FC0DB05DF814FB210D0108FA
:100320003F0D01082DE9FF5F1D464FF0FF3BD5E96A
:10033000014691465F464FF00008A9697F1C01986D
:100340008847296A824688470028F6D1BAF1FF3FDC
:100350000CD024F4C064002E19DD600614D5BAF167
:100360002B0F09D0BAF12D0F0ED103E0584604B07F
:10037000BDE8F09F44F48064A9697F1C0198884718
:10038000761E8246002E02DDBAF1300F03D0B9F19D
:10039000000F26D032E0A969761E44F400747F1C59
:1003A000019888478246002E05DDBAF1780F06D005
:1003B000BAF1580F03D0B9F1000F10D01EE0B9F117
:1003C000000F02D0B9F1100F18D1A969761E24F4DC
:1003D00000747F1C019888478246102002E00820A4
:1003E00000E00A20814609E008FB0908A969761E99
:1003F00044F400747F1C019888478246002E05DD76
:100400004946504600F06AFC0028EDDAE969019897
:100410008847A00502D46FF00100A8E7E00725D1C6
:10042000600613D5600502D5C8F1000000E0404623
:1004300029680A1D2A600968220501D5087015E09F
:10044000220701D5088011E008600FE02868011D2F
:1004500029600068210502D580F8008006E02107A8
:1004600002D5A0F8008001E0C0F8008038467EE7A1
:100470002DE9FF4F087883B09946FF2805D0491C25
:100480002D2804D00024002008E000200BE00124E7
:10049000F9E700EB800003EB4000491C0B78FF2BD1
:1004A000F7D104B1404200230293147819461D4647
:1004B0002D2C01D02B2C04D1521C2D2C13D0002418
:1004C0000294AA461478FF2C0FD00A25A3FB0578C6
:1004D00001FB05814FF0000C03FB0C11521CE319CA
:1004E0004AEB0101EEE70124EAE7814453EA010007
:1004F00002D019F5C87F06DA03980021C0E900117F
:1005000007B0BDE8F08F0025AE4E2F46DFF8B88269
:10051000184600F0B9FCCDE90001B9F1000002DA9B
:10052000C9F1000400E004460023A74A1AEB030BBC
:1005300042EB045A12E0E00707D02A463346384619
:10054000414600F0ECF9074688462A4633461046F5
:10055000194600F0E4F905460E466410002CEAD175
:10056000DDE90001B9F1000F5A46534606DA00F002
:1005700048FA3A46434600F044FA05E000F0CFF965
:100580003A46434600F0CBF9029A0AB181F00041A5
:10059000039AC2E90001B3E72DE9FF4F1F468DB072
:1005A000D7E901464FF0FF382E2045464FF00009AD
:1005B0000B90B9696D1C0E988847396A8246884746
:1005C0000028F6D1BAF1FF3F0AD024F4D064002EFF
:1005D00011DDBAF12B0F08D0BAF12D0F0BD102E0CB
:1005E000404611B08DE744F48064B9696D1C0E98E3
:1005F00088478246761E6946600501D52D2000E0B9
:100600002B208DF8000001F1010B0DF1200809E00D
:10061000B9696D1C0E98884782460F9844F400749F
:10062000761E0560002E02DDBAF1300FF0D00B9976
:100630008A453ED144F0800406E00F99681CA9F178
:10064000010944F400740860B9696D1C761E0E98A7
:10065000884782463028F0D02BE00B998A4505D197
:10066000200603D444F08004761E18E050460BF0B8
:1006700015FB08B30DF11301761E44F400748B458D
:1006800008D2AAF130000BF8010B200607D5A9F11A
:10069000010003E0200602D409F101008146A00513
:1006A00002D50F99681C0860B9696D1C0E988847BF
:1006B0008246002ED1DC53E0002E51DDBAF1650FE9
:1006C00002D0BAF1450F4BD1A00549D5B9696D1CCF
:1006D00024F44074761E0E9888478246002E0CDD66
:1006E0002B2804D0BAF12D0F07D144F48074B969D6
:1006F0006D1C0E9888478246761EE00501D52D2197
:1007000000E02B2108F8011BCDF82C8021E00DF131
:100710002901761E44F4007488450CD2AAF13000F9
:1007200010F0FF0088F8000002D10B99884509D924
:1007300008F1010806E0E00501D5244801E042F295
:100740000F708146B9696D1C0E98884782460F98D4
:100750000560002E04DD50460BF0A0FA0028D6D12B
:10076000F9690E988847FF208BF8000088F8000090
:100770000020069007904B466A4608A906A8FFF796
:1007800077FEA00502D46FF001002AE714F0240FD1
:100790000AD0E00714D1DDE906123868031D3B607A
:1007A0000068C0E900120BE0DDE9060100F002FA82
:1007B0000146E00704D13868021D3A600068016014
:1007C00028460EE7000014400000F03FF1D8FFFF7C
:1007D0002DE9FE4F804681EA0300C00F0C460090D1
:1007E00021F0004123F00045B8EB0200A94105D2F9
:1007F0004046214690461C460B46024623F00040E8
:10080000104347D0270DC7F30A00C3F30A510290E3
:10081000401A019040286BDAC3F3130040F4801BA8
:100820000098924620B10023D2EB030A63EB0B0B36
:1008300001985946C0F14002504600F01EFA0646A3
:100840000D4650465946019A00F036FA10EB080062
:100850006141002487EA115284EAE7731A4340D0C9
:10086000009A62B3019A012A4FEA075215DC001B75
:1008700061EB02014FF0004202EA0752CDE900426B
:10088000001C41F5801132462B4600F0AFFA03B050
:10089000BDE8F08F40462146F9E7001B61EB0201FD
:1008A000001C41F5801300185B412018A2F50017C9
:1008B00047EB030140EAD570B6196D4111E06D08B0
:1008C0004FEA360645EAC0754FEA0752001B61EB56
:1008D0000201001C41F5801149084FEA300000195F
:1008E000514132462B4603B0BDE8F04F00F06FBADD
:1008F0000098012240000023D0EB020263EBE0737A
:10090000009821464FEAE074B8EB000061EB040167
:10091000E9E783F000435BE781F0004158E72DE908
:10092000FE4F81EA030404F0004421F000410094EA
:100930004FF0000B23F0004350EA01045ED052EA6E
:1009400003045BD0C3F30A54C1F30A552C44A4F248
:10095000F3340194A0FB0254C1F3130141F480115C
:10096000C3F3130343F4801301FB024400FB034E63
:10097000840A970A44EA815447EA8357A4FB07682C
:1009800002958D0A05FB07854FEA932C04FB0C5456
:100990002705029D4FEA065847EA1637B5EB0805CA
:1009A0006EEB070C870E920E47EA811742EA83121C
:1009B000A7FB0201B6EB0B0164EB00042B0D43EA2D
:1009C0000C335E1844EB1C50DA465146E7FB02013B
:1009D000C5F313044FEA0B3343EA14534FEA0432CE
:1009E000019C43EA0603A4F10C040294009CCDE9A7
:1009F00000B400F0FBF903B0BDE8F08F0020014621
:100A0000F9E72DE9F04D81EA030404F0004B21F0F1
:100A1000004514464FF0000A23F0004150EA050259
:100A200020D054EA01021DD0C5F30A570246C5F38F
:100A30001303C1F31300C1F30A5640F4801543F4C5
:100A40008013A7EB0608101BD64608F2FD3873EB9F
:100A5000050002D308F1010801E092185B41B8F1EA
:100A6000000F03DA00200146BDE8F08D00204FF4AE
:100A70008011064684460EE0171B73EB050705D36D
:100A8000121B63EB050306434CEA010C49084FEACD
:100A9000300092185B4150EA0107EDD152EA0300A1
:100AA00012D082EA040083EA0501084305D0101B36
:100AB000AB4106D20122002306E000224FF00043A2
:100AC00002E06FF0010253101AEB06004CEB0851E4
:100AD00010EB0A0041EB0B01BDE8F04D00F077B9D7
:100AE0000EB540F2334102910021CDE900110A46D2
:100AF0000B4600F07BF903B000BDC1F30A5210B5FC
:100B0000C1F3130140F2FF3341F480119A4201DA3C
:100B1000002010BD40F233439A42A2F2334203DC7C
:100B2000524200F0B9F810BD904010BD00F00042F4
:100B300030F000400AD0C10D01F56071C0F316001D
:100B400042EA0151C20840071143704700200146A4
:100B50007047000030B5041E71F1000404DB4FF053
:100B60000044404264EB0101141E73F1000405DBF4
:100B70001C464FF00043524263EB04038B4208BF14
:100B8000824230BD30B5041E71F1000404DB4FF029
:100B90000044404264EB0101141E73F1000405DBC4
:100BA0001C464FF00043524263EB0403994208BFD6
:100BB000904230BD01F0004330B421F0004150EAD2
:100BC000010206D00A0DA2F56072C1F31301002ADA
:100BD00002DC30BC00207047440F44EAC104C1006D
:100BE000E01830BC00EBC25000F0BAB830B50B468C
:100BF000014600202022012409E021FA02F59D424D
:100C000005D303FA02F5491B04FA02F52844151E20
:100C1000A2F10102F1DC30BD2DE9F05F05460020B4
:100C200092469B4688460646814640241BE028465D
:100C300041464746224600F02FF853465A46C01A0E
:100C4000914110D311461846224600F016F82D1A8D
:100C500067EB01084F4622460120002100F00DF805
:100C600017EB00094E41201EA4F10104DFDC4846C9
:100C700031462A464346BDE8F09F202A04DB203A4D
:100C800000FA02F1002070479140C2F1200320FADF
:100C900003F3194390407047202A04DB203A21FADD
:100CA00002F00021704721FA02F3D040C2F1200285
:100CB0009140084319467047202A06DBCB17203A9B
:100CC00041FA02F043EAE07306E041FA02F3D04051
:100CD000C2F1200291400843194670473A2800D2D9
:100CE000303820F02002412A01D3A2F13700884297
:100CF00001D34FF0FF307047026811441378016050
:100D000018467047D16004495161044911620021BD
:100D10001161114600F0F4B8F90C0108F50E010854
:100D2000426842B1016811F8013B23B1521EC0E98B
:100D30000012184670470121C160881E7047426842
:100D40005AB1C368016843B983688B4205D0491E14
:100D5000521CC0E90012002070474FF0FF3070476E
:100D60000029A8BF7047401C490008BF20F00100BF
:100D7000704710B4B0FA80FC00FA0CF050EA01049D
:100D800004BF10BC704749B1CCF1200421FA04F42F
:100D900011FA0CF118BF012121430843A3EB0C0108
:100DA000CB1D4FEA00614FEA102042BF002010BC6B
:100DB000704700EBC35010440029A4BF10BC70471B
:100DC000401C490008BF20F0010010BC704710B55E
:100DD000141E73F1000408DA401C41F1000192185E
:100DE0005B411A4301D120F0010010BD2DE9F04D07
:100DF00092469B4611B1B1FA81F202E0B0FA80F25C
:100E000020329046FFF739FF04460F4640EA0A00B9
:100E100041EA0B0153465A46084313D0114653EAA0
:100E2000010019D0C8F140025046FFF735FF0546D2
:100E30000E46504659464246FFF71FFF084305D06D
:100E4000012004E020463946BDE8F08D002005432E
:100E500046EAE0762C4337430A986305E40AA0EBA0
:100E600008000022FD0A44EA47540A3002D5002057
:100E70000146E9E7010510196941DDE90845001956
:100E80006941BDE8F04DA2E70EB540F2334202924F
:100E90000022CDE900221346FFF7A8FF03B000BDF2
:100EA000C1F30A52C1F3130140F2FF3341F4801140
:100EB0009A4202DA00200146704740F233439A42D8
:100EC000A2F2334202DC5242FFF7E6BEFFF7D5BE84
:100ED000064C074D06E0E06840F0010394E8070087
:100EE00098471034AC42F6D3FFF752F928FD0108B9
:100EF00048FD0108C0B24FF4F05100F099B900006C
:100F00002DE9F34F8BB04FF0000801F10C000C46B7
:100F10004FF0010B46460DF1080A0190626901216C
:100F200001989047051E2DD0252D2CD0216A884789
:100F3000C0B16269012101989047216A8847002861
:100F4000F7D1411E62690198904700E0761CA169C3
:100F50000B988847216A88470028F7D1E1690B98E8
:100F60008847DBE7A1690B9888470746A84201D16B
:100F7000761CD3E7E1690B9888477F1C02D1B8F152
:100F8000000F6FD047E1002762693D46394601985E
:100F900090472A2804D162690121019890470125D0
:100FA000DFF888926269012101989047A0F1300131
:100FB0000A290AD24F45E5DC07EB870100EB410720
:100FC000303FDFD445F01005ECE7E90601D46FF0BF
:100FD00000476C280AD04C2814D0682815D06A28FD
:100FE0000DD074281CD07A281AD01DE06269012126
:100FF000019890476C2802D045F0040514E045F0B4
:1010000002050DE045F020050AE062690121019822
:101010009047682802D045F0080505E045F40065D2
:101020006269012101989047C4E9015765283DD0C4
:1010300019DC58287AD00CDC452837D004DC252868
:1010400026D0412831D131E046282FD047282CD155
:101050002CE05B2877D0612828D063287CD06428D6
:1010600023D15AE0D1E06F2848D008DC66281DD093
:1010700067281BD0692821D06E2816D127E0702858
:1010800045D0732868D0752847D078280DD14DE019
:10109000A1690B988847054625283FF469AFE169A7
:1010A0000B9888476D1C3FF46AAFB4E023466A464C
:1010B0006FF001000B99FFF76FFA9FE045F04000D9
:1010C0006060A80723464FF0000236D43EE0E807F0
:1010D0007FF447AF2068011D21600068290501D514
:1010E00006701BE7290701D5068017E7A90703D576
:1010F000F117C0E9006111E706600FE745F0400015
:101100006060A80723464FF0080216D41EE040F6A0
:101110000E0125EA0100606016E045F040006060C5
:10112000A80723464FF00A0207D40FE045F040001D
:101130006060A80708D5234610226FF001000B99C4
:10114000AFF300805AE007E0234610226FF0010061
:101150000B99FFF7E7F851E04FF000094F464B4677
:10116000632802D05B2807D041E02079C00601D473
:101170000120A06001273AE06269012101989047AF
:101180005E2805D14FF001096269494601989047F0
:10119000216939B900210A46534643F82120491CE8
:1011A0000829FADBB0B3216969B9C11700EBD16234
:1011B00053110AEB830122F01F02821A01200B68EF
:1011C000904003430B6062690121019890475D28BC
:1011D000E8D1B9F1000F09D00020514651F8202084
:1011E000D24341F82020401C0828F7DB02AB2246FE
:1011F00000976FF001000B99AFF3008000280CDA24
:10120000401C08D1BBF1000F05D04FF0FF300DB0EE
:10121000BDE8F08FFFE74046F9E7E90701D108F1A3
:10122000010806444FF0000B78E60000CCCCCC0C53
:101230007F2801D9002208E0064A02EB5002C007CD
:10124000127800D1120902F00F02012090400840EC
:1012500070470000E8FC010870B58C1810F8015BBD
:1012600015F0070301D110F8013B2A1106D110F83F
:10127000012B03E010F8016B01F8016B5B1EF9D143
:101280002B0705D40023521E0DD401F8013BFAE7C9
:1012900010F8013BCB1A921C03E013F8015B01F834
:1012A000015B521EF9D5A142D8D3002070BD21B1F7
:1012B000826842F00102826003E0826822F001024B
:1012C000826070470021084A1168084A1140D0E93D
:1012D00000231A4383681A43C3681A431143044A1C
:1012E000C2F804137047000004230140E030FCFF03
:1012F000002001400021016041608160C1607047B1
:1013000021B1826842F48072826003E0826822F434
:1013100080728260704721B1826842F400728260FC
:1013200003E0826822F400728260704730B50246A2
:10133000002000235068104C20400D790C6844EACE
:1013400005242043506090680C4C2040D1E90354A0
:101350002C438D682C434D7944EA4504204390602A
:10136000D06A20F470000C7D641EE4B2234340EA8E
:101370000350D06230BD0000FFFEFFFCFDF7FFC050
:10138000F0B504460D4600200021092D11DDE0686E
:10139000A5F10A0606EB4607072606FA07F1884379
:1013A000A5F10A0606EB460603FA06F10843E060DB
:1013B0000CE0206905EB4507072606FA07F188438C
:1013C00005EB450603FA06F108432061072A0FDA08
:1013D000606B561E06EB86071F2606FA07F1884348
:1013E000561E06EB860605FA06F10843606322E006
:1013F0000D2A0FDA206BD61F06EB86071F2606FA8A
:1014000007F18843D61F06EB860605FA06F1084366
:10141000206310E0E06AA2F10D0606EB86071F26A6
:1014200006FA07F18843A2F10D0606EB860605FAD7
:1014300006F10843E062F0BD816841F080418160BF
:10144000704700210160017141718160C1600161DB
:10145000012101757047000070B505460C46FE205D
:101460001649087008464570847015480078C870A1
:1014700014480068000C087112480088000A48717E
:10148000104800788871002007E00F4911F81020FB
:10149000C11D0A4B5A54411CC8B20C4909788842F4
:1014A000F3DB1121E01C054A1154EF21201D1154DA
:1014B000621D2946014804F0BFF970BDF2170020F3
:1014C000D80200206C020020C80A0020C7020020B9
:1014D00070B505460C46FE200B490870084645705D
:1014E00084700A480078C870094800780871112192
:1014F000E01C054A1154EF21201D1154621D29469C
:10150000014804F099F970BD1F030020D8020020A3
:101510001603002070B506460D460024FE2029491A
:10152000087008464670857027480078C87000BF6C
:1015300037E0264830F82400C0F30321C4EBC40090
:10154000001D204A1154214810F82410C4EBC40097
:10155000401D11541E48015DC4EBC400801D115490
:101560001C4830F81400010AC4EBC400C01D11541B
:10157000184810F81410C4EBC40008301154164871
:1015800030F82400C0F30721C4EBC4000930115423
:10159000114810F82410C4EBC4000A301154601C28
:1015A000C4B20E4800788442C3DB1121E81C054A0E
:1015B0001154EF21281D11546A1D3146014804F0D1
:1015C0003BF970BDAB160020D8020020F40A0020C1
:1015D000F00B00209C0B0020480B0020C7020020CD
:1015E0002DE9F04F89B004460D4616461F46DDE949
:1015F00014ABDDE912890E2204F10C0101A8FEF7FB
:1016000041FE206800F06AF83349606800F07CF819
:101610003149A06800F078F8206801F06FFB009075
:101620006068009903F002FC206801F067FB0090FD
:10163000A068009903F0FAFB00208DF81E0001203D
:101640008DF81F0000208DF820008DF821008DF806
:1016500022008DF823008DF81A908DF81B508DF81C
:101660001C708DF81D60ADF8188006A9206801F087
:1016700024F90E2001F024FA00208DF80E008DF8D8
:101680000F0001208DF810000020ADF80400ADF827
:101690000600ADF80800ADF80A00ADF80C00012016
:1016A0008DF8110001A800F0EBFF01220221206853
:1016B00001F0FAF8206801F02DFA8DF814008DF889
:1016C00015A08DF816B001208DF8170005A804F0BC
:1016D0005DFB09B0BDE8F08F0100020070B5054662
:1016E0000748854202D14FF0007404E00548854266
:1016F00001D14FF0C0640121204605F04BFA70BDC6
:1017000000640040006800402DE9FC4180460D4621
:10171000C5F3074030B1012806D0022806D00328BF
:1017200008D105E0002405E0012403E0022401E0E3
:10173000032400BF00BFC5F3072010B1012804D166
:1017400001E0002701E0012700BF00BFE8B220B19F
:10175000012804D0022806D103E0002603E0012678
:1017600001E0022600BF00BF404600F013F8D8F8A1
:10177000040000908DF804408DF8067003208DF869
:1017800005008DF807606946D8F8000003F090FA6C
:10179000BDE8FC8170B505461C492868884201D126
:1017A00001242EE01A492868884201D1022428E049
:1017B00018492868884201D1042422E01649286883
:1017C000884201D108241CE014492868884201D1CC
:1017D000102416E012492868884201D1202410E024
:1017E00010492868884201D140240AE00E4928683F
:1017F000884201D1802404E00C492868884200D145
:1018000084150121204605F0B5F970BD00000240A5
:101810000004024000080240000C02400010024098
:101820000014024000180240001C02400020024048
:101830002DE9FF4107460C4615461E46DDF8288077
:10184000384600F027F80294ADF804500020ADF8B7
:101850000600ADF80C0001A9384606F081FC012213
:101860001146384606F0D9FB0121384606F072FBD6
:10187000384606F013FC8DF800008DF801608DF8F5
:10188000028001208DF80300684604F07FFABDE86D
:10189000FF81000010B504463748844204D101217D
:1018A000084605F097F966E0B4F1804F04D10121B4
:1018B000084605F06FF95EE03048844204D101210A
:1018C000022005F067F956E02D48844204D1012139
:1018D000042005F05FF94EE02A48844204D101213A
:1018E000082005F057F946E02748844204D1012139
:1018F000102005F04FF93EE02448844204D1012134
:10190000202005F047F936E02148844204D1012126
:10191000022005F05FF92EE01E48844204D1012127
:10192000080405F057F926E01B48844204D1012140
:10193000480405F04FF91EE01848844204D1012103
:10194000880405F047F916E01548844204D10121C6
:10195000402005F01FF90EE01248844204D1012115
:10196000802005F017F906E00F48844203D10121D9
:10197000801505F00FF910BD000001400004004083
:1019800000080040000C004000100040001400401F
:101990000004014000400140004401400048014073
:1019A00000180040001C00400020004070B50546B3
:1019B0000C46FE200A4908700846457084700948A4
:1019C0000078C8701121E01C054A1154EF21201D38
:1019D0001154621D2946024803F02EFF70BD00001D
:1019E00056180020D802002000BFFEE708B50221EB
:1019F000144800F0C9FE18B30421124800F0D0FDCD
:101A00001149104800F0B0FD104A00210D4800F0C7
:101A1000DEFF0E48006900900C480FC803F056FC2A
:101A20000A480069009009480FC805F093FB01F0CF
:101A300059FC0748D0F8A300401C0549C1F8A30091
:101A400008BD000000640040080000329409002036
:101A5000CC05002010B50121064800F095FE40B1EC
:101A60000121044800F09CFD03220021014804F0FC
:101A700032FF10BD006400401CB508480B21002354
:101A80004FF40072CDE9001005A108480DF0D6FB17
:101A900004460BF06FF984621CBD00008809002029
:101AA00043414E325F5461736B0000000D2001080A
:101AB0002DE9F0418AB004460D4616461F46DDF872
:101AC00040803F4800F0C0FD05A801F013F8012157
:101AD000022005F04FF80121480605F05BF80121CE
:101AE000880605F057F86020089002208DF8240041
:101AF00000208DF8260003208DF8250001208DF8A8
:101B0000270008A92F4803F0D3F8092205212D4802
:101B100003F016F9092206212A4803F011F90020E2
:101B20008DF81A008DF81B008DF81C0001208DF82F
:101B30001D0000208DF81E008DF81F008DF8168006
:101B40008DF817408DF818608DF81950ADF81470A5
:101B500005A91B4800F0B1FE0F2000F0B1FF0F20D7
:101B60008DF80E0000208DF80F0001208DF8100078
:101B70000020ADF80400ADF80600ADF80800ADF89F
:101B80000A00ADF80C0001208DF8110001A800F04A
:101B900077FD012202210A4800F086FE40208DF8E0
:101BA000000004208DF8010000208DF802000120C3
:101BB0008DF80300684604F0E9F80AB0BDE8F0814A
:101BC000006800400004024000B585B00221CF4803
:101BD00000F0DAFD002872D00421CC4800F0E0FCCF
:101BE000CB49CA4800F0C0FC6A460021C74800F053
:101BF000EEFEC84900980860C748D0F8A300401C12
:101C0000C549C1F8A3000120C44908700020C44997
:101C100008800098400930B1022860D0042871D0B3
:101C2000062870D113E1009800F01F000F283AD069
:101C30000CDC042831D004DC012810D003284BD15F
:101C400019E0092823D00A2846D11AE016280CD01A
:101C50001D283BD01E282CD01F283DD130E000226B
:101C6000B049684604F055FA37E00022AD496846AD
:101C700004F0F9FA31E00022AA49684604F099FA22
:101C80002BE00022A749684604F017FA25E000225D
:101C9000A449684604F0E5F91FE00022A14968461E
:101CA00004F0C8F919E000229E49684604F055FA8C
:101CB00013E000229B49684604F092FA0DE023E10C
:101CC00000229849684604F0F4FA06E0002295499B
:101CD000684604F09CFA00E000BF00BF13E10098E2
:101CE00000F01F000F283CD00EDC042833D004DCA9
:101CF000012812D003284CD11BE0092825D00A283E
:101D000047D11CE048E0FDE016280CD01D283AD051
:101D10001E2832D01F283CD129E001228149684683
:101D200004F0F7F936E001227E49684604F09BFA98
:101D300030E001227B49684604F03BFA2AE00122A8
:101D40007849684604F0B9F924E0012275496846EB
:101D500004F087F91EE001227249684604F06AF92E
:101D600018E001226F49684604F0F7F912E00122F9
:101D70006C49684604F09DFA0CE001226949684606
:101D800004F02EFA06E001226649684604F03FFAA4
:101D900000E000BF00BFB6E0009800F01F000F2871
:101DA0003AD00CDC042831D004DC012810D0032800
:101DB0004AD119E0092823D00A2845D11AE016286B
:101DC0000CD01D283AD01E2832D01F283CD129E043
:101DD00002225449684604F09CF936E00222514937
:101DE000684604F040FA30E002224E49684604F0AA
:101DF000E0F92AE002224B49684604F05EF924E04B
:101E000002224849684604F02CF91EE002224549A6
:101E1000684604F00FF918E002224249684604F0CF
:101E20009CF912E002223F49684604F042FA0CE0B5
:101E300002223C49684604F0D3F906E002223949FF
:101E4000684604F0E4F900E000BF00BF5BE00098E2
:101E500000F01F000F283AD00CDC042831D004DC3D
:101E6000012810D003284AD119E0092823D00A28D4
:101E700045D11AE016280CD01D283AD01E2832D0A1
:101E80001F283CD129E003222649684604F041F985
:101E900036E003222349684604F0E5F930E00322E6
:101EA0002049684604F085F92AE003221D49684666
:101EB00004F003F924E003221A49684604F0D1F83B
:101EC0001EE003221749684604F0B4F818E0032224
:101ED0001449684604F041F912E0032211496846AA
:101EE00004F0E7F90CE003220E49684604F078F9A3
:101EF00006E003220B49684604F089F900E000BFC0
:101F000000BF00E000BF00BF05B000BD006800409A
:101F10000800003228000020CC050020B502002077
:101F2000EE0100207D06002010B50121044800F0DC
:101F30002BFC18B10121024800F032FB10BD00005B
:101F40000068004008B503F051FA00200423254A38
:101F50002549009025480AF021FE082000F022FFC4
:101F60004FF4E1300BF042FF4FF4E1300BF0A6FFED
:101F70004FF4E1300BF0FAFF02F088F840F24731FD
:101F800063200BF087FE03F061FE02F0CBFA02F053
:101F9000FFFC082000F006FF04F01EFF142002F0F2
:101FA00023FB1349087008460078AA280BD10A20A1
:101FB0001049087007201049087001200F49087067
:101FC00000200F4908700F4800780F49088006F07C
:101FD00009F906F07BF9082000F0E4FE04F0EAFFBE
:101FE00008BD000030F8010828F80108006400402E
:101FF000D9020020FF02002001030020B2020020CD
:10200000B4020020D8020020A201002008B50DF083
:1020100055F900900AF09EFE0021017195E2012120
:1020200068460CF0DDFAF848007928B9FFF78AFF16
:102030000AF090FE0121017105F01AF8F3490880B9
:1020400000201AE0F24931F81010491CF04A22F839
:102050001010114631F81010B1F5487F0BDB01214B
:102060008140EC4A12688A43EA490A604FF4487199
:10207000E74A22F81010411CC8B2E74909788842A3
:10208000E0DB002028E0E54931F81010491CE34A64
:1020900022F81010114631F81010B1F5E16F0EDB87
:1020A000114631F8101040F20A72914207DA01210C
:1020B0008140DB4A12688A43D9490A600AE0D7495D
:1020C00031F81010B1F5FA6F04DB4FF4FA61D34A1E
:1020D00022F81010411CC8B21528D4DBD148006882
:1020E000012802D10020D049086006F0DFFF02F08D
:1020F0006FF903F0C3FBCD48007830B9CC480078C5
:1021000040F00100CA49087005E0C948007820F095
:102110000100C7490870C74890ED000AB5EEC00A33
:10212000F1EE10FA5BD0C44890ED000AF3EE0E0A0F
:10213000B4EEE00AF1EE10FA06D2BD48007840F0A5
:102140000200BB49087005E0B948007820F00200A1
:10215000B7490870B94890ED000AF3EE0E0AB4EEE4
:10216000E00AF1EE10FA06D2B148007840F004001F
:10217000AF49087005E0AE48007820F00400AC4993
:102180000870AF4890ED000AF3EE0E0AB4EEE00AD4
:10219000F1EE10FA06D2A648007840F00800A449F3
:1021A000087005E0A248007820F00800A0490870F7
:1021B000A34890ED000AF3EE0E0AB4EEE00AF1EE49
:1021C00010FA06D29A48007840F01000984908703A
:1021D00005E09748007820F010009549087099486C
:1021E0000088401C9749088008460088B0F57A7F2F
:1021F00009DB0846008840F2EA31884203DA002011
:102200009149087008E08F48008840F2EA3188421E
:1022100002DB08468B4908808C4890ED000AF3EEFB
:102220000E0AB4EEE00AF1EE10FA75DD8848008877
:10223000401C8749088087480088401C85490880E1
:1022400085480088401C8449088084480088401CD8
:102250008249088082480088401C81490880814862
:102260000088401C7F4908807F480088401C7E49C8
:1022700008807E480088401C7C4908807C480068B3
:10228000B0B973480088B0F5FA6F0ADB7948007876
:1022900040F00100774908704FF4FA606C490880FB
:1022A00009E07448007820F001007249087002E0EB
:1022B00000206749088070480068B0B96548008808
:1022C000B0F5FA6F0ADB6B48007840F0020069490C
:1022D00008704FF4FA605F49088009E065480078AB
:1022E00020F002006349087002E00020594908808C
:1022F0005F4830380068B8B957480088B0F5FA6FC1
:102300000BDB5C48007840F004005A4908704FF439
:10231000FA60514908800AE0DBE05648007820F076
:1023200004005449087002E000204B4908805048DE
:102330000C300068B0B949480088B0F5FA6F0ADB84
:102340004C48007840F008004A4908704FF4FA60A1
:102350004249088009E04748007820F008004549D4
:10236000087002E000203D49088044480068B0B988
:102370003B480088B0F5FA6F0ADB3E48007840F031
:1023800010003C4908704FF4FA603549088009E0B4
:102390003848007820F010003649087002E000202C
:1023A0002F49088036480068B0B92E480088B0F53B
:1023B000FA6F0ADB2F48007840F020002D490870A2
:1023C0004FF4FA602749088009E02A48007820F095
:1023D00020002849087002E0002022490880244893
:1023E0000830006878B920480088B0F5FA6F49DBFA
:1023F0002048007840F040001E4908704FF4FA6011
:102400001949088048E044E088090020840300203E
:10241000480A0020B8020020C7020020C60B002096
:102420003C020020C0010020400200207E0200206B
:10243000EC020020540300201002002014020020AF
:102440001802002052030020500300200C0200203C
:10245000EE020020F0020020F2020020F402002030
:10246000F6020020F8020020FA020020FC02002000
:1024700030024142ED0200203C0240420C824042C8
:10248000088241423148007820F040002F4908700E
:1024900002E000202E4908802E480068B0B92E487E
:1024A0000088B0F5FA6F0ADB2848007840F0800019
:1024B000264908704FF4FA602749088009E023484C
:1024C000007820F080002149087002E000202249B5
:1024D00008802248007830B92148007840F0020096
:1024E0001F49087005E01E48007820F002001C49D2
:1024F000087018482838006830B91948007840F04A
:1025000001001749087005E01548007820F0010027
:1025100013490870134890ED000AB5EEC00AF1EEB9
:1025200010FA0BDD0E48007800F00200022805D0FA
:102530000B48007820F0FE00094908700AF00AFCF8
:10254000411DD0F80500401C086068E5ED02002040
:10255000FA02002034024142FC020020B5020020B1
:10256000200200205403002000220C4B994202D18B
:102570000023836111E0C1F3130201F000730BB17A
:10258000C2600AE001F080630BB1026105E001F076
:1025900000630BB1826000E0426070477000F03071
:1025A000B1F5007F3AD00FDC202928D006DC0129C4
:1025B0001CD004291DD0082940D11DE0402921D07C
:1025C000B1F5807F3AD126E0B1F5004F31D006DC7D
:1025D000B1F5806F25D0B1F5006F2FD124E0B1F5B2
:1025E000803F12D0B1F5003F28D111E0154A82603A
:1025F00025E00822C26022E01022C2601FE008220B
:1026000002611CE01022026119E00822426016E01B
:102610001022426013E00422426010E00422426073
:102620000DE0042242600AE000228261042242603E
:1026300005E0002282610422426000E000BF00BF8A
:10264000704700000101010010B504460B488442A8
:1026500009D10121480604F0ADFA00214FF00070C5
:1026600004F0A8FA08E00121880604F0A3FA00218A
:102670004FF0806004F09EFA10BD0000006400403E
:1026800010B50021837A012202FA03F13D4A126853
:1026900042F001023B4B1A603A4A1C3212688A43EC
:1026A000384B1C331A60027BCAB9364A0C321268A6
:1026B0008A43344B0C331A604288C38842EA03438E
:1026C000304A4032847A42F834300288838842EAC1
:1026D00003432C4A4032847A02EBC4025360027BEB
:1026E000012A19D1274A0C3212680A43254B0C33B0
:1026F0001A604288038842EA0343224A4032847ABD
:1027000042F83430C288838842EA03431D4A40328B
:10271000847A02EBC4025360C27A3AB9194A121D94
:1027200012688A43174B1B1D1A6006E0154A121DDA
:1027300012680A43134B1B1D1A60028932B9114AF1
:10274000143212688A430F4B14331A600289012A2B
:1027500006D10C4A143212680A430A4B14331A6029
:10276000427B012A06D1074A1C3212680A43054BF4
:102770001C331A60034A126822F00102014B1A60EE
:1027800010BD00000066004070B504460D460026EE
:1027900060692840002871D0B5F5807F5CD010DCDE
:1027A000082D35D006DC012D20D0022D24D0042D9B
:1027B00072D127E0102D31D0202D35D0402D6BD196
:1027C00038E0B5F5004F60D009DCB5F5007F49D0A1
:1027D000B5F5806F4CD0B5F5006F5DD14FE0B5F524
:1027E000803F2DD0B5F5003F56D12FE0A0682D4990
:1027F00000F00EFF064651E0E068032100F008FFFC
:1028000006464BE0E068082100F002FF064645E07E
:10281000E068102100F0FCFE06463FE0206903213D
:1028200000F0F6FE064639E02069082100F0F0FECF
:10283000064633E02069102100F0EAFE06462DE04E
:102840006068082100F0E4FE064627E06068102179
:1028500000F0DEFE064621E0A069012100F0D8FE6E
:1028600006461BE0A069022100F0D2FE064615E0F4
:10287000A069042100F0CCFE06460FE00FE0A0693D
:10288000702100F0C5FE064608E06068042100F0F3
:10289000BFFE064602E0FFE7002600BF00E000267C
:1028A000304670BD010101001AB143690B43436119
:1028B00002E043698B434361704730B50246002014
:1028C0000023146824F002041460146844F0010426
:1028D000146000E05B1C546804F001041CB94FF65E
:1028E000FF74A342F6D1546804F001040CB900202F
:1028F0006CE08C79012C04D1146844F080041460DD
:1029000003E0146824F080041460CC79012C04D115
:10291000146844F04004146003E0146824F0400498
:1029200014600C7A012C04D1146844F02004146063
:1029300003E0146824F0200414604C7A012C04D1C4
:10294000146844F01004146003E0146824F01004C8
:1029500014608C7A012C04D1146844F008041460CB
:1029600003E0146824F008041460CC7A012C04D12C
:10297000146844F00404146003E0146824F00404B0
:1029800014608C78A407CD7844EA05640D7944EA94
:1029900005444D7944EA05540D886D1E2C43D461DD
:1029A000146824F001041460002300E05B1C5468E8
:1029B00004F001041CB14FF6FF74A342F6D1546831
:1029C00004F001040CB1002000E0012030BD10B57E
:1029D00000F5D87303EB01131B6803F004031372B3
:1029E000137A53B900F5D87303EB01131B6840F257
:1029F000FF7404EA5353136009E000F5D87303EB46
:102A000001131B686FF0604404EAD303536000F5C0
:102A1000D87303EB01131B6803F00203537200F534
:102A2000D87303EB01135B6803F00F03937200F597
:102A3000D87303EB01135B681B0AD37400F5D873DA
:102A400003EB01139B68D37200F5D87303EB0113FA
:102A50009B681C0A147300F5D87303EB01139B6881
:102A60001C0C547300F5D87303EB01139B681B0E09
:102A7000937300F5D87303EB0113DB68D37300F590
:102A8000D87303EB0113DB681C0A147400F5D873C8
:102A900003EB0113DB681C0C547400F5D87303EBD3
:102AA0000113DB681B0E937421B9C36843F0200344
:102AB000C36003E0036943F02003036110BD00001D
:102AC0000B49096841F00101094A11601146096882
:102AD00043F60E729143064A11601146096841EAB5
:102AE000002111601146096821F001011160704751
:102AF0000066004000218171C171017241728172D2
:102B0000C1728170C17003210171022141710121E3
:102B1000018070470146054A914201D1142003E02B
:102B2000034A914200D140207047000000640040F9
:102B30000068004010B502460020936803F08063EF
:102B4000B3F1806F00D110E0936803F00063B3F13C
:102B5000006F01D1012008E0936803F08053B3F1C6
:102B6000805F01D1022000E00420042874D002F527
:102B7000C07303EB00131B6803F0010402F5C0737C
:102B800003EB00131C600B7A7BB94B7A0C8843EA89
:102B9000445302F5C07404EB00142468234302F587
:102BA000C07404EB0014236010E00B7A4C6843EA15
:102BB000C4034C7A234302F5C07404EB0014246868
:102BC000234302F5C07404EB001423608B7A03F0F6
:102BD0000F038B7202F5C07303EB00135B6823F0E5
:102BE0000F0402F5C07303EB00135C6002F5C073C1
:102BF00003EB00135B688C7A234302F5C07404EB8B
:102C0000001463608B7B1C064B7B44EA03440B7B04
:102C100044EA0323CC7A234302F5C07404EB001486
:102C2000A3608B7C1C064B7C44EA03440B7C44EA87
:102C30000323CC7B234302F5C07404EB0014E36050
:102C400002F5C07303EB00131B6843F0010402F5A7
:102C5000C07303EB00131C6010BD000010B50246EA
:102C6000002321B1012907D002290FD109E0906882
:102C70001D4C00EA04030BE090681C4C00EA0403BE
:102C800006E090681A4C00EA040301E0002300BF4C
:102C900000BF184C181BA34216D007DC83B16FF09D
:102CA0008060184470B1022818D111E0B0F5007F9F
:102CB00010D0114C204448B1B0F5003F0ED10BE0CC
:102CC00002230DE000230BE0002309E0002307E0CE
:102CD000012305E0012303E0012301E0002300BFFD
:102CE00000BFD8B210BD00000300000400030008BC
:102CF00000000310000100080001FFF70146054A2B
:102D0000914201D1092003E0034A914200D10920F8
:102D100070470000006400400068004010B51D4886
:102D2000007810B9082000F03DF81B480078401CDE
:102D30001949087017480078401C16490870164851
:102D40000078022813DB15480078401C13490870EE
:102D500008460078152801DD00200870104800782A
:102D600010B1082000F076F800200B4908700948DF
:102D70000078012803D1082000F006F909E0054891
:102D80000078032805D1082000F068F900200149E7
:102D9000087010BD6303002061030020BD02002005
:102DA000FF02002070B586B0054600245320019034
:102DB00000208DF80C008DF80D008DF80E501F4886
:102DC00000788DF80F001E4800780002C1B28DF81F
:102DD00010101B4801788DF811101A480078000275
:102DE000C1B28DF81210174801788DF813101648EB
:102DF00001788DF81410154801788DF81510002110
:102E00008DF8161001A91248FFF794FE064600BF80
:102E100001E0601C84B231460D48FFF71FFF18B96E
:102E200040F6FF708442F4DB40F6FF70844202DB20
:102E3000012006B070BD0020FBE70000C8020020A2
:102E4000C4020020D4020020C7020020C6020020D5
:102E50000064004070B586B00646002552200190FF
:102E600000208DF80C008DF80D008DF80E603D48A7
:102E700000788DF80F003C4801788DF810103B4821
:102E8000006858B13A48007820F0030038490870CB
:102E90000846007840F00100087005E034480078EA
:102EA00020F0030032490870304800683149097841
:102EB000C84000F00100D8B12D4801788DF81110FC
:102EC0002D482C49097850F82100010C8DF812107A
:102ED00029482849097830F82100010A8DF8131093
:102EE00025482449097810F821108DF8141010E0B5
:102EF0001E4800681F490978C84000F0010040B929
:102F000000218DF811108DF812108DF813108DF826
:102F100014101A4890ED000ABCEEC00A10EE100A18
:102F2000C1B28DF81510164801788DF8161001A958
:102F30001448FFF7FFFD0446002501E0681C85B238
:102F400021461048FFF78AFE18B940F6FF70854207
:102F5000F4DB40F6FF70854202DB012006B070BD55
:102F60000020FBE7B2020020FF0200202C0200201C
:102F70005B020020BD020020740A00200C02002029
:102F8000D00100200064004070B586B006460025E0
:102F90005320019000208DF80C008DF80D008DF865
:102FA0000E60284800788DF80F0026480078032826
:102FB00007D1002023490870234801788DF81010AC
:102FC0000AE020480078052806D100201D49087035
:102FD0001E4801788DF810101D48008801128DF8E8
:102FE00011101B4801788DF812101A480068010C66
:102FF0008DF8131017480088010A8DF81410154831
:1030000001788DF8151001218DF8161001A91248CC
:10301000FFF790FD0446002501E0681C85B22146BB
:103020000D48FFF71BFE18B940F6FF708542F4DB30
:1030300040F6FF70854202DB012006B070BD002023
:10304000FBE70000500300204D0300204E0300204A
:103050004A030020440200200064004070B586B09E
:10306000054600245320019000208DF80C008DF8B7
:103070000D008DF80E5001208DF80F0002218DF803
:10308000101003218DF8111004218DF8121016482C
:103090000068010C8DF8131013480088010A8DF8A0
:1030A0001410114801788DF8151002218DF81610B2
:1030B00001A90E48FFF73EFD064600BF01E0601C77
:1030C00084B231460948FFF7C9FD18B940F6FF70D0
:1030D0008442F4DB40F6FF70844202DB012006B03C
:1030E00070BD0020FBE700003C02002000640040AF
:1030F00070B505460C46FE200B4908700846457021
:1031000084700A480078C870094800780871112155
:10311000E01C054A1154EF21201D1154621D29465F
:10312000014802F089FB70BD4C180020D802002035
:10313000A502002070B505460C46FE200B4908701C
:103140000846457084700A480078C87009480078BD
:1031500008711121E01C054A1154EF21201D115462
:10316000621D2946014802F067FB70BD3818002037
:10317000D8020020A90200204B4800884B4909884A
:10318000401A14280BDB9FED4A0A4A4880ED000ADA
:1031900000204949087001204849086083E04248FE
:1031A000008842490988401A142812DA3E480088EB
:1031B0003E490988401A0F280BDB9FED410A3D4824
:1031C00080ED000A00203C49087001203B4908605E
:1031D00069E03548008835490988401A0F2812DA15
:1031E0003148008831490988401A0A280BDB9FEDD5
:1031F000350A304880ED000A00202F490870012070
:103200002E4908604FE02848008828490988401A5C
:103210000A2812DA2448008824490988401A052817
:103220000BDB9FED290A234880ED000A002022498C
:10323000087001202149086035E01B4800881B49BF
:103240000988401A052812DA1748008817490988A2
:10325000401A01280BDBB3EE040A164880ED000A81
:103260000020154908700120144908601BE00E4831
:1032700000880E490988401A012814DA01201349F0
:1032800008709FED130A0B4880ED000A00200B49DF
:1032900008601049087001200F4908700F49087034
:1032A00000200F4908707047BE0200204403002030
:1032B00000001643540300201A03002094024042E9
:1032C0000000C842000070420000204218030020A5
:1032D00000000000C0020020A9020020A802002077
:1032E000FF020020B248007801287DD10020B149BA
:1032F000087054E1B048C079012876D1AF48016820
:10330000AC480078401C814214D1AB48C178AC482D
:10331000A84A12788154A748017801208840A94919
:1033200009680843A74908600021A748A14A127804
:1033300020F81210A548007800287DD19E4800781A
:1033400000F00F00012834D19C48016899480078AA
:10335000401C81422CD19E4896490978405C401C13
:103360009B49944A12788854084692490978405CEF
:1033700001280DD1974908708E48017801208840B6
:1033800095490968084394490860002093490870EA
:103390008F4888490978405CEE2804DBEE208C4990
:1033A000844A1278885400208D49824A12788854C1
:1033B000F0E08148007800F00F000228F8D17F4843
:1033C00001687C480078401C8142F1D184487949E9
:1033D0000978405C401C8249764A127888547548C6
:1033E00001780120884001E0E0E08BE07D49096838
:1033F00081437C4801607A486E490978405C012825
:103400001ED16C48017801208840764909688143C3
:10341000744801607448007820F003007249087015
:103420000846007840F002000870624801780120E8
:1034300088406949096800E013E0814366480160FB
:1034400067485C490978405CEE2804DBEE2064495B
:10345000584A1278885400205D49564A1278885498
:1034600098E05648016853480078401C81429FD13B
:103470005148007800F00F00022837D158484D49D4
:103480000978405C401C56494A4A12788854494899
:1034900001780120884053490968814351480160FF
:1034A00044480178012088405049096808434F4941
:1034B00008604B483F490978405C01280AD14A48D6
:1034C000007820F00300484908700846007840F072
:1034D00002000870424837490978405CEE2859DB01
:1034E000EE213F48334A1278815453E03248007845
:1034F00000F00F0003284DD1002139482D4A1278E1
:10350000815447E02C48C079022843D12B480168F8
:1035100028480078401C81423CD135480078032877
:103520000AD1254880792449097840EA01203149A7
:10353000204A127821F812001F4880781E494978E5
:1035400040EA01212C481B4A127840F822101A4800
:1035500040791949097940EA01202849154A127829
:1035600041F8220013480178012088402449096865
:103570000843234908600F48017801208840214909
:10358000096808431F49086000211F48094A12784A
:1035900020F8121007480078401C064908700548BA
:1035A00000781A4909788842FFF6A4AE70470000F7
:1035B000B8010020E0020020B0010020AC01002092
:1035C000F00B0020B8020020480A0020C8020020AA
:1035D0001D0C00205A020020380200204803002061
:1035E000080C00202C0200205B0200206C0200204E
:1035F000FF0200209C0B0020F40A0020480B002052
:103600003C02002040020020C60B0020C702002020
:103610000246002002EA01030BB1012000E0002075
:103620007047000070B505460C46FE200A49087038
:1036300008464570847009480078C8701121E01C64
:10364000054A1154EF21201D1154621D29460248DC
:1036500002F0F2F870BD000024180020D80200200B
:1036600070B506460C4604F08000802808D104F0AE
:103670007F0000EB800106F58E7000EBC10507E0CE
:1036800004F07F0000EB800106F55D7000EBC105E2
:1036900004F07F00287004F08000C009687029469B
:1036A000304607F0FAFE002070BD70B506460C46A5
:1036B00004F08000802808D104F07F0000EB800136
:1036C00006F58E7000EBC10505E004EB840106F5FC
:1036D0005D7000EBC1050020A87004F07F00287029
:1036E000C4F3C01068702946304607F0AEFE0020D3
:1036F00070BD2DE9F04106460D4690461F4605F087
:103700008000802808D105F07F0000EB800106F5DD
:103710008E7000EBC10407E005F07F0000EB800134
:1037200006F55D7000EBC10405F07F00207005F028
:103730008000C0096070C4F80880E770607808B144
:103740002078E080022F01D10020207121463046F0
:1037500007F02FFE0020BDE8F0812DE9F04105467D
:103760000E461746984606F07F0000EB800105F5EF
:103770005D7000EBC104E760C4F814800020A06114
:10378000607006F07F002070E878012800D1276182
:10379000207820B92146284607F02FFD03E0214676
:1037A000284607F0DBFE0020BDE8F08108B50022C6
:1037B0000092009A61F30A12009202691268009B5B
:1037C0001A4303691A6008BD70B506460C4604F03A
:1037D0008000802808D104F07F0000EB800106F50E
:1037E0008E7000EBC10505E004EB840106F55D7009
:1037F00000EBC1050120A87004F07F002870C4F31D
:10380000C01068702946304607F076FE002070BD73
:103810002DE9F04107460D461646984605F07F0013
:1038200000EB800107F58E7000EBC1040120607091
:1038300005F07F002070E66026610020A061C4F8DA
:103840001480207820B92146384607F0D6FC03E0E2
:103850002146384607F082FE0020BDE8F0810000D6
:1038600030B587B00546594C284607F08CFC01A8B6
:1038700003F0C0F9029CE868C0680590059820F440
:10388000705005900598E968C860284607F090FFD9
:1038900003280BD10020A8704FF40070A880059871
:1038A00020F4705000F5105005907EE00120A870C3
:1038B0004020A8804648844209D34648844206D224
:1038C000059820F4705000F5605005906DE0414877
:1038D000844209D34048844206D2059820F47050AF
:1038E00000F55050059060E03B48844209D33B48C6
:1038F000844206D2059820F4705000F5405005909F
:1039000053E03648844209D33548844206D20598AC
:1039100020F4705000F53050059046E03048844265
:1039200009D33048844206D2059820F4705000F53F
:103930002050059039E02B48844209D32A4884421C
:1039400006D2059820F4705000F5105005902CE038
:103950002548844209D32548844206D2059820F49C
:10396000705000F5005005901FE02048844209D3B4
:103970001F48844206D2059820F4705000F5E050AC
:10398000059012E01A48844209D31A48844206D2AC
:10399000059820F4705000F5C050059005E005989A
:1039A00020F4705000F5A05005900598E968C860B3
:1039B00000200690069820F4005000F50050069074
:1039C0000698E9684861012007B030BD007A030A13
:1039D000C0E1E4000024F400E0EC040100C318019D
:1039E000002D310140A44C0100366E0140E29501EA
:1039F00080C3C90160600B02F8B5054600240020B1
:103A00000090284607F009FF064681E006F0010015
:103A100000287BD0E1B2284600F0A8FA0090009878
:103A200000F0010030B3012000FA04F72869406B70
:103A3000B8432969486300200090009820F00100F5
:103A4000401C009005F1180050F824000099816096
:103A5000E1B232480068426828469047E878012879
:103A600008D13CB940F21110405D042802D128462B
:103A700007F06EFC0098C0F3C00060B10020009019
:103A8000009820F008000830009005F1180050F868
:103A90002400009981600098C0F3001060B10020FC
:103AA0000090009820F010001030009005F11800F0
:103AB00050F82400009981600098C0F3801060B134
:103AC00000200090009820F040004030009005F168
:103AD000180050F82400009981600098C0F340005D
:103AE00060B100200090009820F00200801C00903F
:103AF00005F1180050F82400009981600098C0F387
:103B0000C01018B12146284600F044FA641C76081B
:103B1000002E7FF47BAF0120F8BD0000940500204B
:103B20007CB50446002500200190204607F07DFE6C
:103B300006466FE006F00100002869D0E9B2204691
:103B400007F07BFE0190019800F00100C8B300204F
:103B50000190019820F00100401C019004F15400F4
:103B600050F8250001998160E078012817D104F10F
:103B7000540050F825000069009005EB850104F51C
:103B80005D7000EBC10080680099C1F31201411A19
:103B900005EB850204F55D7000EBC2008161E9B2BE
:103BA0001E480068026820469047E078012808D146
:103BB0003DB940F21110005D052802D1204607F002
:103BC000C7FB0198C0F3400060B10020019001984C
:103BD00020F00200801C019004F1540050F82500F0
:103BE000019981600198C0F3C00088B10B4800685A
:103BF00081682046884700200190019820F0080045
:103C00000830019004F1540050F8250001998160BA
:103C10006D1C7608002E8DD101207CBD94050020FE
:103C20003EB50446A07A78B1D4F80C010068009043
:103C3000009820F002000090009820F00100009011
:103C40000099D4F80C01016000200190019820F047
:103C50000100401C01902069406801998843216956
:103C60004860094800688169204688470020029022
:103C7000029820F0004000F1004002900298E168B4
:103C8000486101203EBD0000940500207CB504463B
:103C900000200190019820F0100010300190E068A1
:103CA000806901998843E1688861E068006A009052
:103CB000009800F00F0000EB800104F55D7000EB50
:103CC000C1050098C0F3434007282DD2DFE800F07B
:103CD0002C04051D1E2C1F0027E00098C0F30A10BD
:103CE00090B10098C0F30A122046E96807F0AFFDD2
:103CF000E8680099C1F30A110844E860A8690099CE
:103D0000C1F30A110844A8610FE00EE00DE008229B
:103D100004F2CC51204607F09AFDA8690099C1F33E
:103D20000A110844A86100E000BF00BFE068806994
:103D300001990843E168886101207CBD38B50446DB
:103D400008480068C1682046884700200090009815
:103D500020F00800083000900098E16848610120D8
:103D600038BD0000940500201FB5044600200090D7
:103D70004FF48970005D0090234800684169204637
:103D8000884720698068019000200390039820F400
:103D9000006000F5006003900398E1684861A07A34
:103DA00070B3019800F0010050B340F21510005DAF
:103DB000012825D19DF80000032821D10020029080
:103DC000029820F00100401C0290D4F80C01006819
:103DD00002990843D4F80C110860029820F0020000
:103DE000801C0290D4F80C01006802990843D4F8B2
:103DF0000C1108600548006840F00600034908609F
:103E0000012004B010BD00009405002010ED00E07A
:103E100030B587B0044600200290069005900490CB
:103E200003900190029820F00100401C029020694C
:103E3000406802998843216948600021204607F0C4
:103E40008DFC00250BE0FF2104F1180050F825003F
:103E5000816004F1540050F8250081606D1C607889
:103E6000A842F0D84FF0FF312069816106986FF3C6
:103E70000F00401C0690069880B200F58030069036
:103E800006992069C161059820F008000830059066
:103E9000059820F00100401C0590059820F00200D4
:103EA000801C0590059920694161049820F001006B
:103EB000401C0490049820F00800083004900498F6
:103EC00020F00200801C049004992069016120699F
:103ED00000680390039820F4FE6003900399206922
:103EE0000160204607F034FA00200190019820F488
:103EF000805000F5805001900198E16848610448C5
:103F00000068016920468847012007B030BD0000E5
:103F10009405002038B5044600200090074800684A
:103F2000C16920468847009820F4801000F5801071
:103F300000900098E1684861012038BD9405002098
:103F400038B504460020009007480068016A204602
:103F50008847009820F4001000F5001000900098A9
:103F6000E1684861012038BD9405002030B5024663
:103F700015692B6915696C6B24FA01F505F00105CB
:103F800043EAC51302F1180555F82150AD6805EA5A
:103F9000030030BD2DE9F84306460F4600250020FA
:103FA000009007EB870106F58E7000EBC104D4E9A1
:103FB0000501451AA068A84200D2A568E81C4FEA8E
:103FC000900806F1180050F827008069009029E059
:103FD000D4E90501451AA068A84200D2A568E81CEA
:103FE0004FEA9008ABB2FAB23046E16807F043FC02
:103FF000E0682844E060A0692844A06106F1180048
:1040000050F8270080690090D4E90501884209D161
:104010002178012000FA01F93069406B20EA09009B
:1040200031694863009880B2404506D9D4E905104B
:10403000884202D260690028CAD10120BDE8F88315
:104040000246094B9A4201D2084801E0064810385E
:1040500001F000531BB1064B0B40C36002E0044B60
:104060000B40836070470000106402400060024013
:104070007D0F7D0F21B1026842F00102026003E072
:10408000026822F0010202607047000000B58FB0A4
:10409000194800F037F84FF0006000901748019081
:1040A000174802900020039040F232400490002014
:1040B00005904FF4806006900020079008904FF420
:1040C0008070099040020A9000200B9001200C9013
:1040D00000200D900E906946074800F0EFF801218E
:1040E0000548FFF7C7FF012240210448001F05F0E3
:1040F000CBFF0FB000BD00008860024004440040C8
:1041000079110020016821F00101016000210160A6
:1041100041608160C1600161212141614A49884259
:1041200004D13D21484A103A91608CE0464918314B
:10413000884205D14FF47461434A103A916082E09D
:1041400041493031884205D14FF474113E4A103A4A
:10415000916078E03C494831884205D14FF0746164
:10416000394A103A91606EE037496031884204D193
:104170003649354A103AD16065E033497831884292
:1041800004D13349304A103AD1605CE02E49903175
:10419000884204D12F492C4A103AD16053E02A4971
:1041A000A831884205D14FF03D51274A103AD160DD
:1041B00049E02949884204D13D21274A083A116043
:1041C00041E025491831884205D14FF47461224AF3
:1041D000083A116037E020493031884205D14FF468
:1041E00074111D4A083A11602DE01B49483188427C
:1041F00005D14FF07461184A083A116023E016495E
:104200006031884204D11149134A121F11601AE02B
:1042100011497831884204D10D490F4A121F1160AB
:1042200011E00D499031884204D10A490A4A121F0F
:10423000116008E00849A831884204D14FF03D518F
:10424000054A121F11607047106002403D000020B7
:10425000400F002000003D20106402400146002075
:104260000A6802F001020AB1012000E00020704754
:104270000146486880B2704730B503460A460020C0
:1042800000240B4DAB4201D20A4901E00849103924
:1042900002F000550DB14C6800E00C68064D2C4052
:1042A00004EA02050DB1012000E0002030BD00004D
:1042B00010640240006002407D0F7D0F10B50022A7
:1042C0000268134B1A40CC680B6823434C692343A4
:1042D0008C692343CC6923430C6A23434C6A2343F0
:1042E0008C6A23434C6B23438C6B23431A43026039
:1042F000426922F00702D1E90B3423431A43426199
:104300000B6943604B6883608B68C36010BD00001D
:104310003F801CF00021016041608160C16001614B
:1043200041618161C161016241628162C162016377
:10433000416381637047704770B506460D46144669
:10434000FE201C4908700846467085701A4800789F
:10435000C8701A4800780871194830F8240000F431
:10436000706000114871164810F8240088711548D3
:10437000005DC871144830F81400000A0872124831
:1043800010F814004872114830F82400000A8872AE
:104390000E4810F82400C8721121E81C054A115477
:1043A000EF21281D11546A1D3146024801F044FADC
:1043B00070BD0000D4170020D80200201703002091
:1043C000F40A0020F00B00209C0B0020480B00207A
:1043D00070B500264A48007801282CD14948007859
:1043E000012828D1002048490860052008F0BAFBC0
:1043F00046480078401C4549087008460078152852
:1044000002DC0846007810B90120404908703F4896
:104410000178132000F0E8F9052008F0A3FB012043
:1044200039490860132000F0DFF83849087000208F
:10443000334908700EE03248007803280AD1314829
:10444000007808B9012000E000202E490870002003
:104450002B4908702E4800880A2190FBF1F090FB50
:10446000F1F201FB120084B22948008890FBF1F2BE
:1044700001FB120085B226480088642190FBF1F010
:1044800086B22048007858B9204800782049088032
:10449000204B5A5D195D204BD87801F035FA2DE09C
:1044A0001848007801280BD118480078184908806E
:1044B000184B5A5D195D184B587901F025FA1DE02B
:1044C0001048007802280BD1144800881049088051
:1044D000104B5A5D195D104B187901F015FA0DE07B
:1044E00008480078032809D10D4800880849088049
:1044F000084B5A5D195D985D01F006FA70BD000029
:104500009F010020A4010020A0024042D802002008
:10451000A20100206C01002076010020D0010020C3
:10452000440300201CB50121022002F053FB80202F
:10453000009001208DF8040000208DF80600032073
:104540008DF8050000208DF807006946154800F039
:10455000AFFB1020009001208DF804008DF80600BC
:1045600003208DF8050000208DF8070069460D48EE
:1045700000F09EFB4FF48070009001208DF8040045
:1045800000208DF8060003208DF8050000208DF82E
:1045900007006946044800F08BFB012003490860CE
:1045A0001CBD00000004024000000240A002404286
:1045B00010B580210B4800F046FC00F046F91021B0
:1045C000084800F042FC00F040F98021054800F066
:1045D0003CFC00F03AF98021024800F034FC00F085
:1045E00034F910BD0004024070B50446002500F007
:1045F00087F808B9002070BDA02000F055F800F041
:10460000CBF818B900F0ACF80020F4E7204600F031
:104610004BF800F0C1F800F073F8A12000F044F866
:1046200000F0BAF800F014F80546FFF7C1FF00F0FB
:1046300097F82846DFE770B504462046FFF7D4FF19
:104640000546611CC8B2FFF7CFFF65F31F2070BDA0
:1046500070B5082500241021124800F0F6FB15E083
:104660006006040E80210F4800F0EDFB00F0EDF82D
:1046700080210C4800F0E9FB00F0E7F80948103011
:10468000006800F0100008B144F00104281EA5F1F4
:104690000101CDB2E4D18021024800F0D4FB2046D4
:1046A00070BD00000004024070B5044608251BE000
:1046B0008021124800F0C7FB00F0C7F804F080002A
:1046C00020B110210D4800F0C0FB03E010210B4881
:1046D00000F0B9FB6006040E00F0B7F8802107482F
:1046E00000F0B3FB00F0B1F8281EA5F10101CDB236
:1046F000DED18021014800F0A6FB70BD000402401D
:1047000010B51021154800F0A0FB8021134800F0DF
:104710009CFB00F09AF811481030006808B901209D
:1047200000E0002000F0100008B1002010BD1021B2
:104730000A4800F088FB00F088F80848103000684C
:1047400000F0100008B10020F0E71021034800F04D
:104750007AFB00F07AF80120E8E70000000402404C
:1047600010B580210B4800F06EFB00F06EF81021B0
:10477000084800F068FB00F068F88021054800F068
:1047800064FB00F062F81021024800F05EFB00F0CC
:104790005CF810BD0004024010B58021114800F003
:1047A00052FB00F052F810210E4800F04EFB00F0D2
:1047B0004CF880210B4800F048FB00F046F809480F
:1047C0001030006800F0100028B18021054800F08A
:1047D0003AFB002010BD8021024800F034FB01208C
:1047E000F8E700000004024070B505460C46FFF7EC
:1047F00087FF08B9002070BDA020FFF755FFFFF725
:10480000CBFF18B9FFF7ACFF0020F4E72846FFF70D
:104810004BFFFFF7C1FF2046FFF746FFFFF7BCFF46
:10482000FFF79EFF0120E6E770B505460C46E1B2B2
:104830006A1CD0B2FFF7D8FF052008F093F92112C7
:104840002846FFF7D1FF012070BD10B5642008F0A5
:1048500097F910BD10B5012000F0E0F828B1012053
:1048600000F08AF8012000F08DF810BD10B50A2084
:1048700008F078F91848006840BB1848006801281B
:1048800009D1174890ED000AF5EE000A30EE200A33
:1048900080ED000A1AE011480068022809D1114889
:1048A00090ED000AF6EE000A30EE200A80ED000AD4
:1048B0000CE00A480068032808D10B4890ED000A74
:1048C000DFED0A0A30EE200A80ED000A4FF4805036
:1048D00000F058F810BD0000308241420400002072
:1048E000140000201800002010000020CDCC4C3D0A
:1048F00010B5022000F092F838B104480068401C5E
:1049000002490860022000F03DF810BD9801002027
:1049100010B5042000F082F828B1042000F02CF833
:10492000042000F02FF810BD10B5082000F076F834
:1049300028B1082000F020F8082000F023F810BD6E
:1049400010B5102000F06AF828B1102000F014F81B
:10495000102000F017F810BD10B5402000F05EF8F0
:1049600038B104480068401C02490860402000F04B
:1049700009F810BD9401002001490860704700004B
:10498000143C01400149086070470000143C01409C
:104990000EB50121880302F01DF90621002002F066
:1049A000B9FB4020019000208DF8080010208DF800
:1049B000090001208DF80A0001A800F03BF8012150
:1049C000002002F0A7FB0220019000208DF80800D3
:1049D00010208DF8090001208DF80A0001A800F0D0
:1049E00029F817208DF8000004208DF801008DF8BB
:1049F000020001208DF80300684601F0C7F9072086
:104A00008DF8000004208DF801008DF802000120CF
:104A10008DF80300684601F0B9F90EBD014600208B
:104A2000034A12680A400AB1012000E000207047E2
:104A3000143C0140002123498279002A3AD00A46D9
:104A4000126803689A430B461A600A1D12680368CD
:104A50009A430B1D1A60027911440A6803681A43CD
:104A60000A60184A0832126803689A43154B0833E3
:104A70001A601A1D126803689A43124B0C331A60AD
:104A80004279102A0ED11A1F126803681A430D4B7F
:104A900008331A601A1D126803681A43094B0C3355
:104AA0001A600DE00749427911440A6803681A4305
:104AB0000A6005E0027911440A6803689A430A60B3
:104AC00070470000003C0140014908607047000049
:104AD0000C3C024030B10749096841F48061054A45
:104AE000116005E00349096821F48061014A116001
:104AF00070470000003C02400348006840F48050CA
:104B00000149086070470000003C024070B504464F
:104B10000A460026092502B909E0012A01D1160238
:104B200005E0022A01D1160201E04FF4407600F0C0
:104B30009FF80546092D28D11548006820F44070DB
:104B4000134908600846006830430860084600685A
:104B500020F0F80008600846006844F002010843AD
:104B60000B4908600846006840F48030086000F097
:104B70007FF805460648006820F0020004490860F6
:104B80000846006820F0F8000860284670BD000064
:104B9000103C024009201349096801F48031B1F545
:104BA000803F01D101201CE00E49096801F010018D
:104BB00009B1062015E00B49096801F4807109B1BB
:104BC00002200EE00749096801F0EF0109B1072052
:104BD00007E00449096801F0020109B1082000E07A
:104BE000092070470C3C02400348006840F0004038
:104BF0000149086070470000103C024030B5024691
:104C00000C46092500F034F80546092D19D10E4847
:104C1000006820F440700C4908600846006840F4C1
:104C2000007008600846006840F0010008601460E9
:104C300000F01EF805460448006820F00100024913
:104C40000860284630BD0000103C0240054800685E
:104C500000F0004028B1044802490C3908600348BC
:104C600008607047103C024023016745AB89EFCDD7
:104C700008B509200090FFF78DFF009002E0FFF7D4
:104C800089FF00909DF800000128F8D09DF80000F1
:104C900008BD08B58DED000A009901700099090A58
:104CA00041700099090C81700099090EC17008BD0E
:104CB000F0B50A4600210023002400BF3DE0012595
:104CC00005FA01F3156805EA03049C4234D105682E
:104CD0004F000326BE40B543056015794E00B54030
:104CE0000668354305601579012D02D01579022D2E
:104CF00016D185684F000326BE40B54385605579BF
:104D00004E00B540866835438560456801268E4073
:104D1000B5434560456896798E40B6B235434560E7
:104D2000C5684F000326BE40B543C560D5794E0027
:104D3000B540C6683543C560491C1029BFD3F0BDD6
:104D4000F0B5002300244D07ED0E02FA05F3CE1056
:104D500000F1200555F826504E07F70E0F26BE40ED
:104D6000B543CF1000F1200646F82750CE1000F1D1
:104D7000200555F8265045EA0304CE1000F1200521
:104D800045F82640F0BD01464A68B2F5807F3BD029
:104D900012DC102A30D008DC012A25D0022A25D0C6
:104DA000042A25D0082A3FD124E0202A26D0402AF0
:104DB00026D0802A38D125E0B2F5805F2CD009DCDE
:104DC000B2F5007F22D0B2F5806F21D0B2F5006F2E
:104DD0002AD11FE0B2F5005F20D0B2F5804F1FD07E
:104DE000B2F5004F20D11DE000201DE001201BE0A6
:104DF000022019E0032017E0042015E0052013E04D
:104E0000062011E007200FE008200DE009200BE04C
:104E10000A2009E00B2007E00C2005E00D2003E04C
:104E20000E2001E00F2000BF00BF704770B50446A0
:104E30000D462046FFF7A7FF06462A463146206862
:104E4000FFF77EFF70BD41837047018370474FF6C7
:104E5000FF7101600021017141718171C171704761
:104E60000021002000BF05E0064A32F8102011445E
:104E7000421CD0B20A28F7DB0A22B1FBF2F2024B45
:104E80001A607047F61800209402002001460020A6
:104E90002C4A914203D2B1F1006F00D350E02A4A6C
:104EA000914204D2274A914201D3082048E0274A80
:104EB000914204D2244A914201D3102040E0244A76
:104EC000914204D2214A914201D3182038E0214A6C
:104ED000914204D21E4A914201D3202030E01E4A62
:104EE000914204D21B4A914201D3282028E01B4A58
:104EF000914204D2184A914201D3302020E0184A4E
:104F0000914204D2154A914201D3382018E0154A43
:104F1000914204D2124A914201D3402010E0124A39
:104F2000914204D20F4A914201D3482008E00F4A2F
:104F3000914204D20C4A914201D3502000E0582003
:104F400070470000004000080080000800C0000812
:104F50000000010800000208000004080000060824
:104F60000000080800000A0800000C0800000E08F5
:104F700070B50A480468001D0568001D06683444C1
:104F800054B108220649204600F036FC04220449A8
:104F90001031284600F030FC70BD0000107AFF1F71
:104FA0007E04002070B506463048007800285BD1AA
:104FB0002F480068B0F5006F02D100202C4908602E
:104FC0002B4800682B490968884203D100202749F3
:104FD000087070BD2648006826490968884206D9CD
:104FE00023480068C0F500602349086006E02148B6
:104FF00000681F490968401A1F4908601E48006878
:10500000402811D91A48008885B240241848006801
:105010004030174908601848006840381649086051
:1050200001201249087018E01148008885B2124822
:10503000008884B20E4800680F49096808440C498A
:10504000086000200C490860402C03D10220074969
:10505000087002E0012005490870084842192346FB
:1050600081213046FEF7D4FB00BFB2E7B003002039
:10507000A8030020A4030020AC0300208F19002007
:105080000348006800F0010000B100BE00BFFEE769
:10509000F0ED00E070B52DED048B05460C460026C2
:1050A000FE2067490870084645708470654800789E
:1050B000C87065480078000208716348007848713C
:1050C000624890ED000AF0EE000A20EE200ABCEEE5
:1050D000C00A10EE100A88715D4890ED000ABCEE1F
:1050E000C00A10EE100AC8715A48007808725A486F
:1050F000007848725948007840F002008872022017
:10510000C872574800780873564890ED000ABCEE04
:10511000C00A10EE100A4873534890ED000ABCEE26
:10512000C00A10EE100A887350480078C8735048BF
:10513000816A0846FBF7FAFC41EC190B9FED4D0B19
:1051400053EC102BFBF7EBFB41EC180BFBF7D5FCFA
:105150003B49087449480088001248744748007861
:10516000887447480078C8744648007808754648EF
:105170000078487545480078887545480078C875B6
:1051800044480078087644480078487643480078D8
:10519000887643480078C8764248007808774248C5
:1051A0000078487741480078887741480078C87788
:1051B0004048007881F820003F48007881F82100BD
:1051C0003E4890ED000ABCEEC00A10EE100A81F8CD
:1051D00022003B4890ED000ABCEEC00A10EE100A17
:1051E00081F823003748007881F82400002081F8F6
:1051F000250000BF07E034490A5C00F12601104B8E
:105200005A54411CC8B2164909788842F3DB002081
:1052100005E00B4AC11C515C4E40411CC8B2A04283
:10522000F7DBE01C06490E54EF21201D044A1154FF
:10523000621D2946024800F0FFFABDEC048B70BDE8
:105240005F170020D8020020C00100208C0200203F
:105250000C020020EC020020FF020020C802002007
:10526000C70200201002002014020020D0010020FC
:1052700098080020B81E85EB51B89E3FC40200205C
:10528000D2020020C9020020CA020020CB02002066
:10529000D6020020D7020020D0020020D102002038
:1052A000C6020020CD020020CE020020CF02002046
:1052B000CC020020ED020020010300201802002093
:1052C0001C02002020020020F00B00200FB410B5BB
:1052D00002987D281AD19DF81300012816D19DF857
:1052E000140098B99DF8150080B99DF8160068B9AA
:1052F0009DF8170050B99DF8180038B99DF81900AD
:1053000020B99DF81A0008B900F066F802987F28C5
:1053100022D19DF8130001281ED19DF814101048C9
:105320000068000E814217D19DF815000C490968EC
:10533000C1F3074188420FD19DF81600084909883A
:10534000C1F30721884207D19DF817000449097865
:10535000884201D108F070FC10BC5DF814FB00001D
:10536000BC0100202DE9F04186B00546884616466E
:1053700000240195029500208DF80C008DF80D0099
:105380008DF80E6000BF06E018F804100DF10F0054
:105390000155601C84B2B442F6DB01A90D48FDF74B
:1053A000C9FB0746002401E0601C84B23946094865
:1053B000FDF754FC012803D040F6FF708442F3DB74
:1053C00040F6FF70844203DB012006B0BDE8F081A7
:1053D0000020FAE70064004008B5022007230246D7
:1053E000812100907B2001F0D7FE08BD1CB5012172
:1053F000082001F0BFFB0121072001F0BBFB0121C8
:10540000480501F0B7FB0420009000208DF804004F
:1054100003208DF8050001208DF8070069468048BB
:10542000FFF746FC0820009000208DF804000320C0
:105430008DF8050001208DF8070069467948FFF7CF
:1054400037FC4FF48050009000208DF804000320BA
:105450008DF8050001208DF8070069467248FFF7B6
:1054600027FC4FF40040009000208DF8040003203A
:105470008DF8050001208DF8070069466B48FFF79D
:1054800017FC4FF48040009000208DF804000320AA
:105490008DF8050001208DF8070069466248FFF786
:1054A00007FC4FF40050009000208DF8040003200A
:1054B0008DF8050001208DF8070069465A48FFF76E
:1054C000F7FB0120009000208DF8040003208DF8E8
:1054D000050001208DF8070069465348FFF7E8FBF7
:1054E0004FF40040009000208DF8040003208DF858
:1054F000050001208DF8070069464B48FFF7D8FBEF
:105500000820009000208DF8040003208DF805008D
:1055100000208DF8070069464348FFF7C9FB0420C7
:10552000009000208DF8040003208DF80500002075
:105530008DF8070069463C48FFF7BAFB4FF48050EE
:10554000009000208DF8040003208DF80500002055
:105550008DF8070069463348FFF7AAFB102000903A
:1055600000208DF8040003208DF8050000208DF840
:10557000070069462D48FFF79BFB4FF40060009041
:1055800001208DF8040000208DF8060003208DF81E
:10559000050002208DF8070069462448FFF788FBC4
:1055A0002020009001208DF8040000208DF80600D6
:1055B00003208DF8050002208DF8070069461B487E
:1055C000FFF776FB1020009001208DF804000020EA
:1055D0008DF8060003208DF8050002208DF80700E5
:1055E00069461148FFF764FB2020009001208DF8E8
:1055F000040000208DF8060003208DF8050002202D
:105600008DF8070069460848FFF752FB002008495B
:1056100008609FED080A084880ED000A1CBD0000E4
:10562000000C02400004024000080240000002405A
:1056300094024042000000005403002070B505466B
:105640000C46FE20134908700846457084701248C5
:105650000078C87011480088000A08710F48007867
:1056600048711121E01C0B4A1154EF21201D1154E7
:10567000621D2946074800F0DFF809480078401C01
:105680000749087007480078012801D106490870C9
:1056900070BD000038030020D8020020C0010020A7
:1056A000750300207603002077030020B0EE401A37
:1056B000B0EE080A454880ED000A9FED450A4548CE
:1056C00080ED000A9FED440A444880ED000AF5EEA3
:1056D000C00AF1EE10FA13D19FED3F0A404880ED69
:1056E000000A9FED3D0A3F4880ED000A9FED3A0A0F
:1056F0003D4880ED000A9FED380A3C4880ED000AE5
:1057000030EEC10A364880ED000A90ED000A3548B7
:10571000D0ED001A30EE610A2C48D0ED001A20EED0
:10572000210A2C48D0ED001A2D4890ED002A01EEF8
:10573000820AD0ED001A2B4890ED002AF0EE002AE4
:1057400042EEC21A294890ED002A71EE821A2348CF
:1057500090ED002A02EE210A2348D0ED001A30EE27
:10576000210A80ED000A1F4890ED000A1F4880EDD5
:10577000000A1B4890ED000A1A4880ED000A1C48F8
:1057800090ED000A1B4880ED000A174890ED000AD2
:10579000F0EE0A1AB4EEE10AF1EE10FA03DDB0EE13
:1057A0000A0A80ED000A104890ED000AF8EE0A1A85
:1057B000B4EEE10AF1EE10FA03D2B8EE0A0A80ED77
:1057C000000A094890ED000A70470000840000209C
:1057D0008FC2F53C88000020000000008C000020F3
:1057E000740000207C000020780000208000002051
:1057F000940000209000002030B50B46002100BF2F
:1058000016E00A24B4EB107F05D9302404EB1074A1
:1058100003F8114005E0412404EB10740A3C03F83E
:105820001140000100254C00641C1D554C1CE1B2C8
:105830009142E6DB30BD00002DE9F04106460F46FF
:10584000144600250B490C70962C02D90020BDE8A7
:10585000F081002504E0705D07494855681CC5B219
:10586000A542F8D303480178034806F039F801202F
:10587000EDE7000046030020601800201E48006885
:1058800040B91E480088401C1C49088001201C4962
:10589000087030E01A48007801282CD11748008899
:1058A000022808DD15480088B0F5FA7F03DC0120E6
:1058B000144908701AE011480088B0F5FA7F09DD34
:1058C0000E48008840F2DC51884203DC02200D497A
:1058D00008700BE009480088B0F5FA6F06DB03207A
:1058E000084908704FF4FA60044908800020034911
:1058F0000880034908707047308240429C010020B4
:105900009E0100209F01002070B504460E461546FA
:105910002146682006F00BF831466A2006F007F8A9
:1059200029466C2006F003F870BD000010B59848B9
:105930000068C0009749D1F83C1240EA81009549BF
:10594000D1F8301240EA410093490968084393496D
:1059500008709348007800F0030000285FD18E485B
:10596000006800284FD18A483030006800284AD1AA
:105970008C480078401C8B49087008460078012844
:1059800020D189480068401C8749086008460068A3
:1059900086490968884204DB8348006884490860B6
:1059A00003E082480068824908600020814908605D
:1059B0007F4800688049097888420AD100207F49E1
:1059C000086006E077480078142802DB1420754947
:1059D00008707B4890ED000ADFED7A0AB4EEE00A29
:1059E000F1EE10FA04DB73480068401C714908604E
:1059F00070480068C82812D37348007810B9012095
:105A0000714908700BE064480068012807D16048BC
:105A100030300068012802D10020624908706048D7
:105A2000007800F00C0000285ED159483C30006836
:105A300000284DD156480068002849D163480078B5
:105A4000401C624908705E4890ED000AF3EE0E0AB1
:105A5000B4EEE00AF1EE10FA04DB5D480068401C89
:105A60005B4908605948007801281FD14F480068F9
:105A7000401C4E4908604C4800680968884204DBB5
:105A8000494800684A49086003E0484800684849B6
:105A9000086000204E49086045480068464909787A
:105AA00088420AD100204549086006E0474800784E
:105AB000142802DB14204549087045480068C828AE
:105AC00012D34148007810B901203F4908700BE01B
:105AD0002F483C300068012806D12D480068012875
